:100000000C94AE310C94DF310C94DF310C94DF3161
:100010000C94DF310C94729D0C94DF310C94DF3121
:100020000C9403A10C94DF310C94DF310C94DF317C
:100030000C94DF310D9409830C94DF310C94DF3183
:100040000C94DF310C94EBC50C94DF310C94DF3150
:100050000C94DF310C94DF310D941A2E0D94E8834B
:100060000C94DF310D94978A0C94DF310C94DF31BE
:100070000C94DF310C94DF310C94DF310C94DF31C0
:100080000C94DF310C94DF310C94DF310C94DF31B0
:100090000D94538A0C94DF310C94DF310C94DF31D2
:1000A0000C94DF310C94DF310C94DF310C94DF3190
:1000B0000C94DF310C94DF310C94DF310C94DF3180
:1000C0000C94DF310C94DF310C94DF310D945B8E96
:1000D0000C94DF310C94DF310C94DF310C94DF3160
:1000E0000C94DF31EF4CF54CFB4C064D114D964D09
:1000F0001C4D254D2E4D394D444D4F4D5F4D6A4D94
:10010000964D754D804D8B4DD18CDA8C7F8C4E8CFD
:100110001E8CA08FFD8C1C8EA38EFD8E198F508F90
:1001200024DD24DD27DD24DD27DD2ADD2DDDEAE5E4
:1001300000E613E620E62AE658E679E67FE68DE655
:1001400090E692E69CE6ADE6BEE6B201900148017B
:100150005401B801A401BC013C019E01D401B001CD
:100160003201BA019801700178018E018A01920171
:100170003A01C601B60142017201A6018001C20125
:10018000AA01AC01A20182014001D2016C018001EF
:1001900076017C018401084AD73B3BCE016E84BCCA
:1001A000BFFDC12F3D6C74319ABD56833DDA3D00D1
:1001B000C77F11BED9E4BB4C3E916BAAAABE00001A
:1001C00000803F05A84CCDB2D44EB93836A9020CF8
:1001D00050B9918688083CA6AAAA2ABE00000080D1
:1001E0003F07634236B79BD8A71A39685618AEBA8C
:1001F000AB558C1D3CB7CC5763BD6DEDFD753EF620
:10020000177231BF000000803F08000000BE92243A
:1002100049123EABAAAA2ABECDCCCC4C3E0000006F
:1002200080BEABAAAAAA3E00000000BF000000806A
:100230003F0000000000084178D3BB4387D1133D45
:10024000190E3CC3BD4282AD2B3E68EC8276BED90E
:100250008FE1A93E4C80EFFFBE01C4FF7F3F00004D
:10026000000000000D947B430D9420010D945D056A
:100270000D94B1810D944E5C0D943A430D94F63E6D
:100280000D9470810D9443810D94F53F0D944D01B3
:100290000D94F2420D946B020D9476020D945782E8
:1002A0000D948F010D94E2010D9404430D945602B8
:1002B0000D94E44F0D94DF4F0D94E0030D94050869
:1002C0000D94135D0D94D7A50D941B050D94A106F7
:1002D0000D94DA4F0D94BB810D9478810D947307C2
:1002E0000D949C5B0D9447810D94D0A80D947E8154
:1002F0000D94A55B0D94B24F0D9482810D94158AD7
:100300000D948B810D946A810D9486810D94D54F47
:100310000D945C820D94DA5B0D94C1050D94BD5B68
:100320000D94EC420D94175C0D943F820D942E8A2F
:100330000D94965B0D940C480D9449020D9448431E
:100340000D946B820D9466810D9426430D944D811E
:100350000D944B820D945C810D9462810D946182A9
:100360000D946D430D94DE420D94CB4F0D9454814A
:100370000D9420430D94925B0D942C430D94934F58
:100380000D94D04F0D9458810D94E63E0D945181FB
:100390000D9466820D94C0810D9406050D943982EA
:1003A0000D9425060D9474810D9456430D94B581DA
:1003B0000D9451820D9445826E616E00696E6600E7
:1003C0004E414E494E495459494E46CDCCCC3D0A3A
:1003D000D7233C17B7D13877CC2B329595E6241F1D
:1003E000B14F0A000020410000C84200401C4620D6
:1003F000BCBE4CCA1B0E5AAEC59D7400407A10F3A9
:100400005A00A0724E18090010A5D4E80000E87642
:1004100048170000E40B54020000CA9A3B00000099
:10042000E1F505000080969800000040420F0000B2
:1004300000A08601000000102700000000E8030073
:100440000000006400000000000A0000000000013D
:1004500000000000002C76D888DC674F0823DFC13D
:10046000DFAE59E1B1B796E5E3E453C63AE65199F8
:100470007696E8E6C28426EB898C9B62ED407C6F21
:10048000FCEFBC9C9F40F2BAA56FA5F490055A2AD8
:10049000F75C936B6CF9676DC11BFCE0E40D47FEE4
:1004A000F520E6B500D0ED902E03009435770500D9
:1004B00080841E080000204E0A000000C80C333360
:1004C00033330F986E12831141EF8D2114893BE66F
:1004D0005516CFFEE6DB18D1844B381BF77C1D90F8
:1004E0001DA4BBE424203284725E228100C9F12461
:1004F000ECA1E53D276364696E6F70737578585B96
:10050000002564206279746573207772697474655C
:100510006E20746F20454550524F4D20617420610C
:100520006464726573732030782530347800443306
:10053000202D20526561642F5772697465204545EE
:1005400050524F4D0A0020436F756E7420583A2068
:10055000005344207072696E74696E67206279740A
:100560006520004E6F7420696E206661726D206D8B
:100570006F64652E004163746976652045787472F6
:10058000756465723A2000496E76616C6964206515
:1005900078747275646572005A204F66667365746C
:1005A00000556E6B6E6F776E20636F6D6D616E645C
:1005B0003A2022004D32303020496E76616C6964F9
:1005C00020657874727564657220007A5F6D617859
:1005D0003A20007A5F6D696E3A2000795F6D61782C
:1005E0003A2000795F6D696E3A2000785F6D61781E
:1005F0003A20006F70656E00545249474745524596
:100600004400785F6D696E3A20005265706F7274B5
:10061000696E6720656E6473746F702073746174A3
:100620007573000053494C454E54004E4F524D4196
:100630004C002553204D4F44453A20506572636568
:100640006E7420646F6E653A2025643B2070726979
:100650006E742074696D652072656D61696E696E76
:100660006720696E206D696E733A2025640A004523
:100670006E642066696C65206C69737400426567FE
:10068000696E2066696C65206C697374000A504954
:100690004E44412074656D70657261747572653A7F
:1006A00020252E3166205A20736869667420286DD3
:1006B0006D293A20252E3366000A537465703A205E
:1006C00025642F360A000A537465703A2025642F7A
:1006D000362028736B6970706564290A50494E444E
:1006E000412074656D70657261747572653A20257C
:1006F00064205A20736869667420286D6D293A3029
:100700000A000A5A45524F3A20252E33660A0073D2
:10071000746172742074656D706572617475726550
:100720003A20252E31660A0025642020252E3266C7
:1007300000255320583A20252E356620593A202589
:100740002E3566205A3A20252E35660A00536C65F0
:1007500065702E2E2E004E6F7420696E20666172B9
:100760006D206D6F64652E0025640045303A256468
:100770002052504D0A50524E303A25642052504D6E
:100780000A00256400442D31202D20456E646C65DF
:100790007373206C6F6F700A004175746F00204591
:1007A0002F443D00416476616E6365204B3D004DF2
:1007B0003232302053256900255346696C616D65DE
:1007C0006E742073657474696E67733A204469733C
:1007D00061626C65640A00255346696C616D656EE3
:1007E000742073657474696E67733A0A2553202008
:1007F000204D3230302044252E32660A00255352D7
:100800006574726163743A20533D4C656E67746819
:1008100020286D6D2920463A537065656420286D47
:100820006D2F6D29205A3A205A4C69667420286D24
:100830006D290A25532020204D3230372053252E94
:1008400032662046252E3266205A252E32660A252B
:10085000535265636F7665723A20533D45787472E2
:1008600061206C656E67746820286D6D2920463A9A
:10087000537065656420286D6D2F6D290A255320FE
:1008800020204D3230382053252E32662046252E2A
:1008900032660A25534175746F2D52657472616317
:1008A000743A20533D3020746F2064697361626C28
:1008B000652C203120746F20696E746572707265CA
:1008C0007420657874727564652D6F6E6C79206D17
:1008D0006F766573206173207265747261637473DF
:1008E000206F72207265636F7665726965730A2581
:1008F000532020204D323039205325640A002553DF
:10090000504944206865617462656420736574743D
:10091000696E67733A0A25532020204D3330342006
:1009200050252E32662049252E32662044252E324F
:10093000660A0025535049442073657474696E67D4
:10094000733A0A25532020204D3330312050252E74
:1009500032662049252E32662044252E32660A0052
:10096000255353746570732070657220756E6974B9
:100970003A0A255320204D39322058252E32662040
:1009800059252E3266205A252E32662045252E32D4
:10099000660A25534D6178696D756D2066656564DD
:1009A0007261746573202D206E6F726D616C2028EA
:1009B0006D6D2F73293A0A255320204D3230332094
:1009C00058252E32662059252E3266205A252E3281
:1009D000662045252E32660A25534D6178696D756E
:1009E0006D20666565647261746573202D20737473
:1009F00065616C746820286D6D2F73293A0A255340
:100A000020204D3230332058252E32662059252E95
:100A10003266205A252E32662045252E32660A255A
:100A2000534D6178696D756D20616363656C6572A6
:100A30006174696F6E202D206E6F726D616C20285D
:100A40006D6D2F7332293A0A255320204D323031F3
:100A50002058256C752059256C75205A256C7520F9
:100A600045256C750A25534D6178696D756D20615A
:100A70006363656C65726174696F6E202D20737499
:100A800065616C746820286D6D2F7332293A0A25D0
:100A90005320204D3230312058256C752059256C5B
:100AA00075205A256C752045256C750A25534163C0
:100AB00063656C65726174696F6E3A20533D616362
:100AC00063656C65726174696F6E2C20543D72654C
:100AD000747261637420616363656C6572617469CB
:100AE0006F6E0A255320204D3230342053252E328C
:100AF000662054252E32660A2553416476616E6362
:100B00006564207661726961626C65733A20533D59
:100B10004D696E20666565647261746520286D6D2F
:100B20002F73292C20543D4D696E207472617665B7
:100B30006C20666565647261746520286D6D2F7325
:100B4000292C20423D6D696E696D756D2073656756
:100B50006D656E742074696D6520286D73292C2075
:100B6000583D6D6178696D756D205859206A6572C0
:100B70006B20286D6D2F73292C20205A3D6D6178D4
:100B8000696D756D205A206A65726B20286D6D2F16
:100B900073292C2020453D6D6178696D756D204568
:100BA000206A65726B20286D6D2F73290A255320EA
:100BB000204D3230352053252E32662054252E32DA
:100BC000662042252E32662058252E326620592571
:100BD0002E3266205A252E32662045252E32660A90
:100BE0002553486F6D65206F666673657420286DA8
:100BF0006D293A0A255320204D3230362058252EB3
:100C000032662059252E3266205A252E32660A0079
:100C10004625642025640A004D4D55203C3D202783
:100C2000462564202564270A0050494420417574F4
:100C30006F74756E652066696E69736865642120DE
:100C400050757420746865206C617374204B702C2F
:100C5000204B6920616E64204B6420636F6E737457
:100C6000616E74732066726F6D2061626F766520AD
:100C7000696E746F20436F6E66696775726174691F
:100C80006F6E2E6800504944204175746F74756E04
:100C900065206661696C6564212074696D656F7596
:100CA000740020403A00543A00423A00504944202F
:100CB0004175746F74756E65206661696C65642139
:100CC0002054656D706572617475726520746F6F04
:100CD000206869676800204B643A2000204B693A1D
:100CE0002000204B703A200020436C6173736963CD
:100CF0002050494420002054753A2000204B753A7A
:100D00002000206D61783A2000206D696E3A200045
:100D100020643A200020626961733A200020453A3D
:100D200000205A3A0020593A0020453A00205A3A09
:100D30000020593A00583A00005A30005A31005900
:100D40003000593100583000583100456E6420732E
:100D5000746F70732064696167002E0044656C6570
:100D600074696F6E206661696C65642C2046696CDD
:100D7000653A200046696C652064656C657465643D
:100D80003A004E6F74205344207072696E74696E1D
:100D900067005072696E7420736176656400534415
:100DA000207072696E7420706175736564000A004A
:100DB0002F000A006673656E736F725F72657374DD
:100DC0006F72655F7072696E745F616E645F636F8E
:100DD0006E74696E75650A002F2F20616374696FE8
:100DE0006E3A63616E63656C0043524153485F43E2
:100DF000414E43454C0043524153485F5245434F97
:100E00005645520043524153485F5245434F564561
:100E10005200222832290054004475706C696361C5
:100E2000746520542D636F64652069676E6F726509
:100E3000642E0A004475706C696361746520542DDA
:100E4000636F64652069676E6F7265642E0A00497E
:100E50006E76616C6964205420636F64652E005562
:100E60006E6B6E6F776E204D20636F64653A202540
:100E700073200A006E6F2076616C696420636F6D69
:100E80006D616E64002C20002C20002C20006E2F41
:100E900061002C20002C20002C20006E2F61002FE0
:100EA00000503A005761697420666F722050494EB5
:100EB0004441207461726765742074656D70657259
:100EC00061747572653A004C414E472053454C2081
:100ED000464F5243454400222831290030303030FB
:100EE000303030302D303030302D303030302D300B
:100EF0003030302D303030303030303030303030F5
:100F00000020555549443A00310020455854525567
:100F10004445525F434F554E543A004A5058204D75
:100F20004B335300204D414348494E455F5459507F
:100F3000453A00312E3000206261736564206F6E87
:100F4000204D61726C696E204649524D57415245A1
:100F50005F55524C3A68747470733A2F2F676974F6
:100F60006875622E636F6D2F707275736133642FB5
:100F700050727573612D4669726D7761726520508C
:100F8000524F544F434F4C5F56455253494F4E3A80
:100F9000004649524D574152455F4E414D453A50EA
:100FA000727573612D4669726D7761726520004DAF
:100FB00031313320530020423A0020453A00543A60
:100FC0000020413A0020503A002042403A002040A0
:100FD0003A00202F003A00205400202F0020423AEF
:100FE00000202F006F6B20543A002569206D696E38
:100FF0002C2025692073656300496E76616C6964F5
:10100000204D20636F64653A202573200A00556ED9
:101010006B6E6F776E204720636F64653A2025738F
:10102000200A004D65736820626564206C657665F2
:101030006C696E67206E6F74206163746976652ECB
:10104000000A002020000A4D6561737572656420F6
:10105000706F696E74733A000A5A20736561726327
:1010600068206865696768743A20002C004E756DC9
:1010700020582C593A2000206D6963726F6E7300FE
:1010800045786365737369766520626564206C6575
:1010900076656C696E6720636F7272656374696FE1
:1010A0006E3A2000426564206C6576656C696E67F7
:1010B000206661696C65642E2053656E736F7220C3
:1010C00074726967676572656420746F6F20686900
:1010D00067682E0A00426564206C6576656C696EEF
:1010E00067206661696C65642E2053656E736F724C
:1010F00020646973636F6E6E6563746564206F72DC
:10110000206361626C652062726F6B656E2E0A00EF
:101110004732382057300050494E44412070726F9A
:1011200062652063616C6962726174696F6E2073BD
:101130007461727400473238205730004D323400E9
:101140005345545F43484F505F005345545F5354D9
:1011500045505F005345545F574156455F00544D1D
:10116000435F0043524153485F00507265737320E0
:101170006B6E6F6220746F20707265686561742099
:101180006E6F7A7A6C6520616E6420636F6E74692D
:101190006E75652E00506C656173652070726573A5
:1011A0007320746865206B6E6F6220746F20756E9B
:1011B0006C6F61642066696C616D656E7400526568
:1011C0006D6F7665206F6C642066696C616D656E0D
:1011D0007420616E6420707265737320746865207A
:1011E0006B6E6F6220746F207374617274206C6F09
:1011F0006164696E67206E65772066696C616D65F4
:101200006E742E00616E6420707265737320746852
:1012100065206B6E6F6200496E736572742066693B
:101220006C616D656E7400436F6C6F72206E6F74CD
:1012300020636F72726563740046696C616D656EE0
:1012400074206E6F74206C6F616465640043686124
:101250006E67656420636F72726563746C793F00BA
:101260004C6F6164696E6720636F6C6F72004368D6
:10127000616E676520737563636573732100506CDD
:1012800065617365206F70656E2069646C6572209E
:10129000616E642072656D6F76652066696C616D44
:1012A000656E74206D616E75616C6C792E0057618E
:1012B000732066696C616D656E7420756E6C6F610C
:1012C00064207375636365737366756C3F00506C5F
:1012D0006561736520757067726164652E004E6587
:1012E00077206669726D77617265207665727369C1
:1012F0006F6E20617661696C61626C653A0057615E
:101300006974696E6720666F722050494E444120AF
:1013100070726F626520636F6F6C696E67004372F5
:101320006173682064657465637465642E2052651A
:1013300073756D65207072696E743F0043726173DE
:10134000682064657465637465642E004578747202
:10135000756465720043686F6F7365206578747299
:10136000756465723A0043686F6F73652066696CD7
:10137000616D656E743A004E6F206D6F76652E005C
:101380005761697420666F7220757365722E2E2EF8
:1013900000536F6D652070726F626C656D20656EB5
:1013A000636F756E74657265642C205A2D6C65765A
:1013B000656C696E6720656E666F72636564202E6A
:1013C0002E2E00537461626C6520616D6269656EDA
:1013D000742074656D706572617475726520323148
:1013E0002D323643206973206E6565646564206123
:1013F000207269676964207374616E642069732068
:1014000072657175697265642E00506C65617365F3
:101410002072756E2058595A2063616C696272613E
:1014200074696F6E2066697273742E0073746172D2
:10143000740A006164635F696E69740A001B5B3241
:101440004A1B5B313B31484F726967696E616C20A2
:101450005061796E65205226442069331B5B323B14
:1014600033485061796E65205226440046616374AA
:101470006F72792052455345540044495341424CC0
:1014800045440A00454E41424C4544004653656E72
:10149000736F722025530A004A756E203233203252
:1014A00030313900436F6D70696C65643A200028F3
:1014B0006E6F6E652C2064656661756C7420636F59
:1014C0006E66696729004A756E20323320323031EA
:1014D000392030373A32323A35320020332E372E27
:1014E000312D323236360A002055706C6F6164201F
:1014F000696E2070726F677265737300205A3A00CC
:1015000020593A0020583A0043524153485F44451D
:1015100054454354454458590043524153485F444D
:1015200045544543544544590043524153485F4450
:101530004554454354454458004D3239001B5B32F5
:101540004A1B5B303B304845787465726E616C2095
:1015500053504920666C6173681B5B313B304857C0
:101560003235583230434C206973206E6F742072CC
:1015700065732D1B5B323B3048706F6E64696E671C
:101580002E204C616E67756167651B5B333B30488D
:1015900073776974636820756E617661696C6162E6
:1015A0006C652E00437261736844657465637420D2
:1015B00044495341424C4544004372617368446559
:1015C0007465637420454E41424C454421005732B6
:1015D00035583230434C206E6F7420726573706FD3
:1015E0006E64696E672E0A002020506C616E6E6515
:1015F0007242756666657242797465733A2000209E
:1016000046726565204D656D6F72793A2000207CC9
:1016100020417574686F723A2000204C6173742009
:10162000557064617465643A200020536F66747766
:101630006172652052657365740020576174636838
:10164000646F67205265736574002042726F776E15
:10165000206F757420526573657400204578746539
:10166000726E616C20526573657400506F7765729D
:101670005570006572726F722077726974696E6757
:1016800020746F2066696C6500656E6473746F709A
:1016900073206869743A2000446F6E652073617628
:1016A000696E672066696C652E006F6B004A505842
:1016B000204D4B3353204F4B2E00426C61636B6FB8
:1016C0007574206F636375727265642E2052656352
:1016D0006F766572207072696E743F0053656C6638
:1016E000746573742077696C6C2062652072756E06
:1016F00020746F2063616C6962726174652061633C
:101700006375726174652073656E736F726C657357
:1017100073207265686F6D696E672E00546865721C
:1017200065206973207374696C6C2061206E656537
:101730006420746F206D616B65205A2063616C6951
:1017400062726174696F6E2E20506C6561736520E2
:10175000666F6C6C6F7720746865206D616E756163
:101760006C2C2063686170746572204669727374B2
:101770002073746570732C2073656374696F6E20B9
:1017800043616C6962726174696F6E20666C6F7719
:101790002E005072696E74657220686173206E6FDE
:1017A00074206265656E2063616C69627261746544
:1017B00064207965742E20506C6561736520666FB6
:1017C0006C6C6F7720746865206D616E75616C2C30
:1017D0002063686170746572204669727374207347
:1017E000746570732C2073656374696F6E20436138
:1017F0006C6962726174696F6E20666C6F772E001F
:101800004F6C642073657474696E677320666F75BE
:101810006E642E2044656661756C74205049442CBA
:1018200020457374657073206574632E2077696C2E
:101830006C206265207365742E005761726E696E4C
:10184000673A20626F7468207072696E74657220E6
:101850007479706520616E64206D6F746865726262
:101860006F6172642074797065206368616E67656A
:10187000642E005761726E696E673A207072696EED
:101880007465722074797065206368616E67656441
:101890002E005761726E696E673A206D6F746865CD
:1018A00072626F6172642074797065206368616E22
:1018B0006765642E0058595A2063616C69627261D1
:1018C00074696F6E20616C6C2072696768742E2079
:1018D000536B65772077696C6C20626520636F724B
:1018E000726563746564206175746F6D617469639A
:1018F000616C6C792E0058595A2063616C69627270
:101900006174696F6E20616C6C2072696768742EF7
:1019100020582F5920617865732061726520736C9F
:10192000696768746C7920736B657765642E2047EE
:101930006F6F64206A6F62210058595A2063616C8E
:101940006962726174696F6E206F6B2E20582F5917
:101950002061786573206172652070657270656EB4
:10196000646963756C61722E20436F6E6772617477
:10197000756C6174696F6E73210058595A206361E8
:101980006C6962726174696F6E206661696C65640E
:101990002E2052696768742066726F6E74206361CE
:1019A0006C6962726174696F6E20706F696E742009
:1019B0006E6F7420726561636861626C652E005899
:1019C000595A2063616C6962726174696F6E206636
:1019D00061696C65642E2046726F6E742063616C61
:1019E0006962726174696F6E20706F696E747320C2
:1019F0006E6F7420726561636861626C652E005859
:101A0000595A2063616C6962726174696F6E2066F5
:101A100061696C65642E20506C6561736520636F2D
:101A20006E73756C7420746865206D616E75616C81
:101A30002E0058595A2063616C6962726174696F33
:101A40006E20636F6D70726F6D697365642E2052C6
:101A5000696768742066726F6E742063616C696276
:101A6000726174696F6E20706F696E74206E6F742E
:101A700020726561636861626C652E0058595A2056
:101A800063616C6962726174696F6E20636F6D70FF
:101A9000726F6D697365642E2046726F6E74206379
:101AA000616C6962726174696F6E20706F696E74C7
:101AB00073206E6F7420726561636861626C652E5D
:101AC0000058595A2063616C6962726174696F6E63
:101AD000206661696C65642E204265642063616CD8
:101AE0006962726174696F6E20706F696E742077BD
:101AF0006173206E6F7420666F756E642E00506C7B
:101B00006561736520706C61636520737465656CD5
:101B1000207368656574206F6E2068656174626506
:101B2000642E0044697374616E6365206265747726
:101B300065656E20746970206F6620746865206E1C
:101B40006F7A7A6C6520616E6420746865206265C6
:101B500064207375726661636520686173206E6FBF
:101B600074206265656E20736574207965742E201B
:101B7000506C6561736520666F6C6C6F772074685C
:101B800065206D616E75616C2C2063686170746591
:101B9000722046697273742073746570732C20739D
:101BA000656374696F6E204669727374206C617925
:101BB00065722063616C6962726174696F6E2E0078
:101BC000506C6163652061207368656574206F6681
:101BD00020706170657220756E646572207468652E
:101BE000206E6F7A7A6C6520647572696E672074F6
:101BF00068652063616C6962726174696F6E206FE1
:101C000066206669727374203420706F696E747315
:101C10002E20496620746865206E6F7A7A6C652084
:101C200063617463686573207468652070617065B2
:101C3000722C20706F776572206F666620746865FD
:101C4000207072696E74657220696D6D656469617A
:101C500074656C792E00506C656173652072656DDA
:101C60006F766520737465656C2073686565742094
:101C700066726F6D20686561746265642E004973D9
:101C800020737465656C207368656574206F6E20C1
:101C9000686561746265643F00206F66203400539C
:101CA0006561726368696E67206265642063616C58
:101CB0006962726174696F6E20706F696E74002062
:101CC0006F662039004D6561737572696E672072A9
:101CD00065666572656E636520686569676874200E
:101CE0006F662063616C6962726174696F6E2070E7
:101CF0006F696E7400506C6561736520636C65611B
:101D00006E20746865206E6F7A7A6C6520666F72DB
:101D10002063616C6962726174696F6E2E20436C1E
:101D200069636B207768656E20646F6E652E004175
:101D300075746F20686F6D650078797A63616C5F88
:101D40006D656173737572655F656E7465720A00A7
:101D500078797A63616C5F73706972616C38206343
:101D6000783D25642063793D2564207A303D2564E3
:101D700020647A3D2564207261646975733D256431
:101D80002061643D25640A0078797A63616C5F7331
:101D900065617263685A206E6F207369676E616C4B
:101DA0000A20783D256C6420793D256C64207A3DBD
:101DB000256C640A00204F4E2D5349474E414C205C
:101DC000617420783D256420793D2564207A3D2585
:101DD000642061643D25640A0078797A63616C5FF0
:101DE0007365617263685A20783D256C6420793D83
:101DF000256C64207A3D256C640A000A0025303287
:101E0000780078797A63616C5F7363616E5F706983
:101E100078656C735F33327833322063783D2564A4
:101E20002063793D2564206D696E5F7A3D256420CD
:101E30006D61785F7A3D25640A0020253264202593
:101E4000640A000A002530327800206D696E3D2555
:101E500064206D61783D2564206469663D25640ACF
:101E6000006D61785F633D253264206D61785F6C41
:101E70003D25640A006D61785F633D2564206D61D6
:101E8000785F723D2564206D61785F6D6174636871
:101E90003D25640A0020783D256420793D25642095
:101EA0007A3D25640A00207061747465726E206644
:101EB0006F756E642061742025642025640A00001B
:101EC00000F000F801FC03FE07FE07FE07FE07FC1A
:101ED00003F801F000000073697A656F6628746F7B
:101EE00074616C293D25640A0073697A656F662800
:101EF000626C6F636B5F627566666572293D25640F
:101F00000A0078797A63616C5F6D656173737572CD
:101F1000655F6C656176650A00706F696E743D255A
:101F20006420783D256420793D2564207A3D256430
:101F30000A0058025802584D584DB004F055F0555B
:101F4000B00478797A63616C5F66696E645F62651C
:101F5000645F696E64756374696F6E5F73656E73D9
:101F60006F725F706F696E745F787920783D256C51
:101F70006420793D256C64207A3D256C640A00203C
:101F80003C20005741524E494E473A2046726F6EF0
:101F90007420706F696E74206E6F74207265616357
:101FA0006861626C652E205920636F6F7264696E80
:101FB0006174653A0000000040410000C04000002C
:101FC0005C430000C04000005C430000464300004A
:101FD000404100004643497465726174696F6E3A0E
:101FE000200043616C6962726174696F6E20666182
:101FF000696C65642120436865636B2074686520A3
:102000006178657320616E642072756E206167610E
:10201000696E2E002563252D31382E313853256306
:10202000002563252E3135533A2573253364002569
:1020300063252E3132533A25732500457872656D3C
:1020400065207370616E206F6620746865205A2069
:1020500076616C75657321006F6B0A007374617231
:10206000740A004D4D5532206669726D7761726554
:102070002076657273696F6E20696E76616C696433
:102080002E20526571756972656420766572736978
:102090006F6E3A206275696C64206E756D62657250
:1020A000202564206F72206869676865722E004D74
:1020B0004D55203D3E20276F6B270A004D4D552082
:1020C0003D3E20276F6B270A002564004D4D5520AB
:1020D0003D3E20276F6B272C20726573756D652040
:1020E0007072696E740A004D4D5520726574727974
:1020F00020617474656D7074206E722E2025640AE0
:10210000004D4D55203D3E20276F6B270A00410AA8
:10211000004D4D55203C3D202741270A004D3630CB
:1021200030004D363030204155544F0050525553F9
:1021300041206673656E736F725F7265636F76655B
:1021400072002568687500410A004D4D55203C3DE0
:10215000202741270A0050300A004D25640A004D0F
:102160004D55203C3D20274D2564270A0057300A55
:10217000004D4D55203C3D20275730270A00533352
:102180000A004D4D55203C3D20275333270A00526D
:10219000300A004D4D55203C3D20275230270A0083
:1021A0004B25640A004D4D55203C3D20274B2564AE
:1021B000270A004525640A004D4D55203C3D202747
:1021C000452564270A0055300A004D4D55203C3DF9
:1021D00020275530270A0043300A004D4D55203C3A
:1021E0003D20274330270A004C25640A004D4D55F9
:1021F000203C3D20274C2564270A005425640A0012
:102200004D4D55203C3D2027542564270A004D4D57
:1022100055202D20454E41424C45440025686875A7
:102220000050300A004D310A004D4D55203C3D20F4
:10223000274D31270050300A004D4D5520766572EC
:1022400073696F6E2076616C6964004D4D55203D59
:102250003E202725646F6B270A0025750053320A3C
:10226000004D4D55203C3D2027533227004D4D5504
:10227000203D3E202725646F6B270A002575004D01
:102280004D55206E6F7420726573706F6E64696E49
:1022900067202D2044495341424C45440053310AA4
:1022A000004D4D55203C3D2027533127004D4D55C5
:1022B000203D3E202773746172742700205B6F6697
:1022C000665D00426564206C6576656C696E6720AA
:1022D0006661696C65642E2053656E736F7220644D
:1022E00069646E7420747269676765722E20446534
:1022F00062726973206F6E206E6F7A7A6C653F2010
:1023000057616974696E6720666F722072657365C4
:10231000742E00506C65617365207570646174651E
:10232000206669726D7761726520696E20796F75BC
:1023300072204D4D55322E2057616974696E6720A9
:10234000666F722072657365742E004B494C4C4564
:10235000442E20005072696E7465722068616C743E
:1023600065642E206B696C6C28292063616C6C6538
:102370006421004B494C4C3A2025640A004D313011
:102380003420496E76616C69642065787472756476
:10239000657220004D31303520496E76616C69647C
:1023A00020657874727564657220004D3130392073
:1023B000496E76616C6964206578747275646572C3
:1023C00020004D32313820496E76616C6964206599
:1023D0007874727564657220004D32323120496E16
:1023E00076616C696420657874727564657220002A
:1023F00055564C4F202D20656E642025640A0073CD
:1024000074707325640A00776F726C6420636F6F59
:102410007264696E617465733A2028252E33662CC8
:1024200020252E33662C20252E3366290A0070685D
:1024300079736963616C20636F6F7264696E617434
:1024400065733A2028252E33662C20252E33662CE2
:1024500020252E3366290A0043757272656E74203A
:10246000706F73205A5F415849533A252E33660ADC
:1024700043757272656E7420706F7320455F4158AA
:1024800049533A252E33660A0041667465722077F7
:10249000616974696E6720666F722074656D703A49
:1024A0000A43757272656E7420706F7320585F41B5
:1024B0005849533A252E33660A43757272656E7415
:1024C00020706F7320595F415849533A252E336667
:1024D0000A0020573A0020453A00543A005A206C2E
:1024E0006976652061646A757374206F7574206FF6
:1024F000662072616E67652E2053657474696E671D
:1025000020746F20302E20436C69636B20746F2021
:10251000636F6E74696E75652E005A206C697665FE
:102520002061646A757374206F7574206F66207201
:10253000616E67652E2053657474696E6720746FD1
:1025400020300020423A0020453A00543A00494EDB
:102550005434007265636F7665725F6D616368699C
:102560006E655F73746174655F61667465725F70D8
:102570006F7765725F70616E69632C20696E697434
:1025800069616C20007265636F7665725F6D61636F
:1025900068696E655F73746174655F6166746572A6
:1025A0005F706F7765725F70616E69632C20696E12
:1025B000697469616C2000473932204500505255DA
:1025C00053412075766C6F004734205330004D32F4
:1025D000362053256C75004D3130362053004D3870
:1025E00032004731204625640047312045322A64B5
:1025F000656661756C745F72657472616374696F2E
:102600006E2046343830004731205A0020463230A0
:1026100030300020590047312058004D38330050E9
:102620006F736974696F6E20726561642066726F82
:102630006D20656570726F6D3A004D3233202573E1
:10264000002E67636F0046656564726174653A00C9
:10265000473120452D64656661756C745F726574E1
:1026600072616374696F6E204634383000473120E0
:1026700045352046313230004D3833004D31393048
:1026800020532564004D31303920532564004732F2
:102690003820582059004731205A323520463830EA
:1026A00030005265636F766572696E67207072697B
:1026B0006E7420202020001B5B303B3135484E2FAC
:1026C00041001B5B303B31354825342E326601001A
:1026D0001B5B303B304825533A0A25530A25533AB1
:1026E000202025352E3266010A25533A2020253533
:1026F0002E3266010053657665726520736B6577CF
:1027000000536C6967687420736B6577004D656171
:10271000737572656420736B6577005B303B305D69
:1027200020706F696E74206F666673657400416413
:102730006A757374696E67205A0052657365740018
:10274000526561722073696465205B756D5D00463A
:10275000726F6E7420736964655B756D5D0052699C
:1027600067687420736964655B756D5D004C6566B0
:10277000742073696465205B756D5D00536574201A
:1027800074656D70657261747572653A0054656D3B
:1027900070657261747572652063616C69627261E3
:1027A00074696F6E206661696C65640054656D7054
:1027B000657261747572652063616C6962726174BF
:1027C000696F6E2069732066696E6973686564203D
:1027D000616E64206163746976652E2054656D7046
:1027E0002E2063616C6962726174696F6E2063612F
:1027F0006E2062652064697361626C656420696E35
:10280000206D656E752053657474696E67732D3E17
:1028100054656D702E2063616C2E004E2F41002098
:102820002030002020310049523A0046494E4441B0
:102830003A0050494E44413A0053656E736F72201E
:102840007374617465006D6D000059005800580084
:1028500059005A002563252E3132533A2573252B12
:1028600030362E33660020003E003E0020003E0041
:102870003E0054656D7065726174757265206361A8
:102880006C6962726174696F6E206661696C6564FF
:102890002E20436F6E74696E7565207769746820A9
:1028A0007072657373696E6720746865206B6E6FF4
:1028B000622E0054656D7065726174757265206377
:1028C000616C6962726174696F6E20646F6E652EEF
:1028D00020436F6E74696E75652077697468207027
:1028E00072657373696E6720746865206B6E6F62C2
:1028F0002E004D3234004D323320257300052E2E2C
:1029000000457874722066616E2073706565643A64
:10291000202564200A005072696E742066616E2062
:1029200073706565643A202564200A0054657374E9
:1029300020323A0A00457874722066616E20737006
:102940006565643A202564200A005072696E74201F
:1029500066616E2073706565643A202564200A0004
:102960005465737420313A0A006C63645F73656C5C
:1029700066636865636B5F617869732025642C20EA
:1029800025640A004D3834004731205A313520463D
:10299000313030300047323820570046696C6520AE
:1029A000696E636F6D706C6574652E20436F6E7415
:1029B000696E756520616E797761793F0042616368
:1029C0006B004D61696E0057616974696E672066BE
:1029D0006F72206E6F7A7A6C6520616E642062651A
:1029E0006420636F6F6C696E670053656C6620745A
:1029F000657374204F4B0053656C66207465737467
:102A0000207374617274202000746D63323133302E
:102A10005F686F6D655F656E746572286178657358
:102A20005F6D61736B3D307825303278290A007410
:102A30006D63323133305F686F6D655F65786974DF
:102A400020746D63323133305F73675F686F6D6917
:102A50006E675F617865735F6D61736B3D3078257C
:102A60003032780A00726573756C742076616C750B
:102A7000653A2025640A0020693D25326420636E92
:102A8000743D2532642076616C3D2532640A006312
:102A90006C7573746572733A0A0020693D2532645F
:102AA00020737465703D2532640A00736F7274651B
:102AB000642073616D706C65733A0A003A200020DF
:102AC0002020202020202020202020202020202006
:102AD000202000203A20002020202020202020201C
:102AE0002020202020202020202020002020202006
:102AF00020202020202020202000257300544D433A
:102B000020445249564552204F56455254454D5047
:102B10000025632533642F25642563005A25362E4E
:102B2000326620005A2020202D2D2D2000256325DF
:102B300033642525002D2D2D00253368686400257C
:102B400033532533732525002053440020202000D3
:102B5000555342002025753E257500203F3E2575C2
:102B600000204625750020463F00204630202000EA
:102B700025632D2D3A2D2D202000256325337568E2
:102B80002025632563002563253032753A253032D0
:102B900075256325630050494E44412048656174A2
:102BA000696E670054656D702E2063616C2E202065
:102BB00020202020202020200043616C6962726167
:102BC00074696F6E20646F6E650043616C69627238
:102BD0006174696E67205A0042656420646F6E6597
:102BE000004265642048656174696E6700486561EC
:102BF00074696E6720646F6E652E00486561746944
:102C00006E670024F4D43050C38E20C2A2401782D5
:102C10008B7011127A910D816CD90AA861E108C7F5
:102C2000586607615143061E4B5D05C145A7041A4E
:102C3000411104093D9803713931034036DB0265C7
:102C4000339102D4305402802E1D02632CEE0175A4
:102C50002AC501B028A001102781018F2564012B0E
:102C6000244B01E0223401AC211F018D200D018095
:102C70001FFC00841EED00971DDF00B81CD200E68B
:102C80001BC600201BBC00641AB200B219A8000ABF
:102C900019A0006A189900D117910040178B00B550
:102CA00016840031167E00B31579003A157300C7FB
:102CB000146F0058146A00EE136600881363002531
:102CC000135E00C7125B006C12570015125400C14E
:102CD00011510070114F0021114B00D61049008D89
:102CE0001047004610440002104200C00F40008010
:102CF0000F3E00420F3C00060F3B00CB0E38009306
:102D00000E37005C0E3500270E3400F30D3200C183
:102D10000D3100900D3000600D2E00320D2D00059C
:102D20000D2C00D90C2B00AE0C2900850C29005C61
:102D30000C2700350C27000E0C2600E80B2400C4DD
:102D40000B2400A00B23007D0B23005A0B2100391C
:102D50000B2100180B2000F80A1F00D90A1E00BB27
:102D60000A1E009D0A1D00800A1D00630A1C004700
:102D70000A1B002C0A1B00110A1A00F7091A00DDB1
:102D8000091900C4091900AB091900920917007B41
:102D9000091800630917004C0916003609160020AF
:102DA0000916000A091500F5081500E0081400CC02
:102DB000081400B8081400A4081400900813007D3B
:102DC0000812006B0813005808120046081200345D
:102DD000081100230811001208110001081100F069
:102DE000071000E0071000D0071000C0071000B067
:102DF000070F00A107100091070E0083070F007452
:102E0000070F0065070E0057070E0049070E003B2D
:102E1000070D002E070E0020070D0013070D0006FA
:102E2000070D00F9060C00ED060D00E0060C00D4BD
:102E3000060C00C8060C00BC060C00B0060C00A472
:102E4000060B0099060C008D060B0082060B00771E
:102E5000060B006C060B0061060A0057060B004CBF
:102E6000060A0042060A0038060A002E060A002456
:102E7000060A001A060A001006090007060A00FDE5
:102E8000050900F4050900EB050900E2050900D970
:102E9000050900D0050900C7050900BE050900B5F0
:102EA000050800AD050800A50509009C050800946B
:102EB0000508008C050800840508007C05080074DE
:102EC0000508006C050700650508005D050700564C
:102ED0000508004E050700470507004005080038B3
:102EE000050700310507002A050700230507001C18
:102EF000050600160507000F050700080506000275
:102F0000050700FB040600F5040700EE040600E8D0
:102F1000040600E2040700DB040600D5040600CF27
:102F2000040600C9040600C3040600BD040600B779
:102F3000040600B1040500AC040600A6040600A0C7
:102F40000405009B04060095040500900406008A11
:102F500004050085040500800406007A0405007558
:102F6000040500700405006B04050066040500619B
:102F70000405005C04050057040500520405004DDB
:102F800004050048040500430405003E0404003A1B
:102F900004050035040500300404002C0405002756
:102FA000040400230405001E0404001A040400168F
:102FB000040500110404000D0404000904050004C4
:102FC00004040000040400FC030400F8030400F4FB
:102FD000030400F0030400EC030400E8030400E42D
:102FE000030400E0030400DC030400D8030400D45D
:102FF000030400D0030400CC030400C8030300C58D
:1030000003030024F404D9201BC40C5C0E9804C4F0
:10301000095F0265077101F405F900FB04B300487C
:10302000048700C10369005803550003034500BE2F
:10303000023A008402310053022A002902250004CA
:10304000022000E4011C00C8011900AF011700981C
:10305000011400840113007101100061011000517E
:10306000010E0043010D0036010B002B010B002067
:10307000010B00150109000C01090003010800FB08
:10308000000800F3000800EB000700E4000600DE83
:10309000000600D8000600D2000600CC000500C7DC
:1030A000000500C2000500BD000400B9000400B521
:1030B000000400B1000400AD000400A9000400A554
:1030C000000300A20003009F0004009B000300987F
:1030D0000003009500020093000300900003008DA0
:1030E0000002008B000300880002008600020084BA
:1030F000000300810002007F0002007D0002007BCF
:1031000000020079000200770001007600020074DE
:1031100000020072000100710002006F0002006DE9
:103120000001006C0002006A0001006900020067F3
:1031300000010066000100650001006400020062F9
:1031400000010061000100600001005F0002005DFD
:103150000001005C0001005B0001005A0001005901
:103160000001005800010057000100560001005501
:103170000001005400010053000000530001005200
:1031800000010051000100500001004F0001004EFD
:103190000000004E0001004D0001004C0001004BFA
:1031A0000000004B0001004A0001004900010048F6
:1031B00000000048000100470001004600000046F2
:1031C00000010045000000450001004400010043EB
:1031D00000000043000100420000004200010041E5
:1031E00000000041000100400001003F0000003FDE
:1031F0000001003E0000003E0001003D0000003DD7
:103200000001003C0000003C0000003C0001003BCD
:103210000000003B0001003A0000003A00010039C4
:1032200000000039000100380000003800000038BC
:1032300000010037000000370001003600000036B2
:1032400000000036000100350000003500000035A8
:10325000000100340000003400000034000100339D
:103260000000003300000033000100320000003293
:103270000000003200010031000000310000003188
:103280000001003000000030000000300001002F7D
:103290000000002F0000002F0000002F0001002E72
:1032A0000000002E0000002E0001002D0000002D67
:1032B0000000002D0000002D0001002C0000002C5B
:1032C0000000002C0000002C0001002B0000002B4F
:1032D0000000002B0000002B0001002A0000002A43
:1032E0000000002A0000002A000100290000002937
:1032F000000000290000002900000029000100282A
:10330000000000280000002800000028000000281D
:103310000001002700000027000000270000002710
:103320000000002700010026000000260000002603
:1033300000000026000000260001002500000025F6
:1033400000000025000000250000002500000025E9
:1033500000010024000000240000002400000024DC
:1033600000000024000100230000002300000023CF
:1033700000000023000000230000002300000023C1
:1033800000010022000000220000002200000022B4
:1033900000000022000000220001002100000021A6
:1033A0000000002100000021000000210000002199
:1033B000000000210001002000000020000000208B
:1033C000000000200000002000000020000000207D
:1033D000000000200001001F0000001F0000001F6F
:1033E0000000001F0000001F0000001F0000001F61
:1033F0000001001E0000001E0000001E0000001E54
:103400000000005072696E742046414E004E6F7A83
:103410007A6C652046414E00546F74616C004C61BB
:103420007374207072696E74004D4D55206C6F611D
:1034300064206661696C73004D4D55206661696C4E
:1034400073004C617374207072696E7420666169D8
:103450006C75726573004D4D5520706F77657220E5
:103460006661696C73004D4D55206C6F6164206618
:1034700061696C73004D4D55206661696C73005431
:103480006F74616C206661696C757265730043725C
:103490006173680046696C616D2E2072756E6F7580
:1034A000747300506F776572206661696C75726520
:1034B0007300546F74616C206661696C757265731A
:1034C0000043726173680046696C616D2E207275ED
:1034D0006E6F75747300506F776572206661696CEA
:1034E00075726573004C617374207072696E74201C
:1034F0006661696C7572657300546F74616C004C21
:10350000617374207072696E7400416D6269656EDA
:103510007400426564004E6F7A7A6C650042656C97
:10352000742073746174757300436F6F6C646F778C
:103530006E00566F6C74616765730054656D7065DD
:10354000726174757265730042656C742073746186
:103550007475730053656E736F7220696E666F00C9
:10356000457874727564657220696E666F0058598B
:103570005A2063616C2E2064657461696C730075F8
:103580006E6B6E6F776E004D4D553220636F6E6EB1
:10359000656374656400446174653A00746F2075F6
:1035A0006E6C6F61642066696C616D656E74007429
:1035B0006F206C6F61642066696C616D656E74006C
:1035C000507265737320746865206B6E6F62003E85
:1035D00043616E63656C0050726568656174696E05
:1035E0006720746F2063757400507265686561743C
:1035F000696E6720746F20656A6563740050726538
:1036000068656174696E6720746F20756E6C6F6198
:10361000640050726568656174696E6720746F201C
:103620006C6F6164005072656865617420746865D0
:10363000206E6F7A7A6C6521004552524F523A00E3
:1036400046696C616D656E74206578747275646925
:103650006E672026207769746820636F72726563D5
:103660007420636F6C6F723F004175746F6C6F6193
:1036700064696E672066696C616D656E742069733C
:10368000206163746976652C206A7573742070728A
:1036900065737320746865206B6E6F6220616E6461
:1036A00020696E736572742066696C616D656E74F5
:1036B0002E2E2E00546F74616C207072696E74200F
:1036C00074696D6500546F74616C2066696C616D1E
:1036D000656E74005072696E742074696D65004681
:1036E000696C616D656E74207573656400526967FD
:1036F0006874004C65667400592064697374616E67
:1037000063652066726F6D206D696E001B5B303BD8
:10371000304825533A202534642052504D0A255311
:103720003A20202534642052504D0A001B5B324A57
:103730002553203A1B5B313B394825382E32662011
:103740006D0A2553203A0A25376C6464203A2532E5
:1037500068686468203A253032686864206D001B10
:103760005B324A25533A1B5B313B364825382E32B3
:10377000666D200A2553203A1B5B333B38482532BF
:10378000646820253032646D202530326473002552
:10379000362E32666D6D004E2F41001B5B303B3084
:1037A0004825533A0A25530A25533A0A25533A0025
:1037B0001B5B303B304825531B5B313B3148255365
:1037C0002020252D33641B5B323B314825532020BC
:1037D000252D33641B5B333B3148001B5B303B3092
:1037E0004825531B5B313B314825532020252D3381
:1037F000641B5B323B314825532020252D33641B4D
:103800005B333B3148255320252D3364001B5B304F
:103810003B304825531B5B313B3148255320202545
:103820002D33641B5B323B314825532020252D333B
:10383000641B5B333B3148255320205820252D3312
:103840006420205920252D3364001B5B303B304819
:1038500025531B5B313B314825532020252D3364F4
:103860001B5B323B314825532020252D33641B5BE5
:10387000333B3148255320205820252D3364202008
:103880005920252D3364001B5B323B314825533AC8
:103890002020256425631B5B333B314850494E444F
:1038A000413A2020202025642563001B5B303B31FA
:1038B0004825533A202020256425631B5B313B318A
:1038C0004825533A20202020202025642563001B12
:1038D0005B313B31485057523A2020202020202590
:1038E000642E25303164561B5B323B3148424544DF
:1038F0003A20202020202025642E253031645600D7
:103900001B5B303B314825531B5B313B3248582011
:1039100025641B5B323B324859202564004E4F5AC8
:103920005A4C45202D20203238352F3000464C454A
:1039300058202D20203234302F3530004350452080
:103940002D20203236302F39300041534120202D98
:1039500020203235352F39300050455420202D207D
:10396000203234302F383500504C4120202D20207B
:103970003231352F363000414253202020202D2077
:10398000203235352F3930006E6F7A7A6C65202DF4
:1039900020203235302F30006661726D2020202DBE
:1039A00020203235302F363000466C617368416913
:1039B0007220495020416464723A004D4D553220C6
:1039C0002020202020204E2F410025642E25642E0B
:1039D00025642D2564002046573A004A756E203232
:1039E00033203230313900453344763666756C6C9D
:1039F0000045494E53795F31306100315F37356D95
:103A00006D5F4D4B33002D2D2D2D2D2D2D2D2D2D5D
:103A10002D2D0020332E372E312D323236360046F2
:103A200069726D776172653A0025642E25642E25D2
:103A3000642E2564004D373032004D373031004D53
:103A4000373032004D37303100464C4558202D205C
:103A500020323430004E4F5A5A4C45202D2020320F
:103A6000383500435045202D202032363000415358
:103A70004120202D20203235350050455420202D66
:103A8000202032343000504C4120202D2020323173
:103A90003500457874727564657200457874727586
:103AA000646572004D6F7665205A004D6F76652013
:103AB00059004D6F76652058001B5B324A43726196
:103AC000736820646574656374696F6E2063616EEA
:103AD0001B5B313B30486265207475726E656420F3
:103AE0006F6E206F6E6C7920696E1B5B323B3048C5
:103AF0004E6F726D616C206D6F6465001B5B324AA6
:103B00005741524E494E473A1B5B313B3048437256
:103B100061736820646574656374696F6E1B5B32E2
:103B20003B304864697361626C656420696E1B5B3D
:103B3000333B3048537465616C7468206D6F646505
:103B4000004175746F6C6F6164696E672066696CA3
:103B5000616D656E7420617661696C61626C65206F
:103B60006F6E6C79207768656E2066696C616D6533
:103B70006E742073656E736F722069732074757232
:103B80006E6564206F6E2E2E2E004552524F523AB3
:103B90002046696C616D656E742073656E736F721B
:103BA000206973206E6F7420726573706F6E646924
:103BB0006E672C20706C6561736520636865636B4C
:103BC00020636F6E6E656374696F6E2E004D6F6457
:103BD00065206368616E676520696E2070726F672B
:103BE00072657373202E2E2E0043616C69627261C0
:103BF000746500506C65617365206C6F6164205062
:103C00004C412066696C616D656E742066697273E3
:103C1000742E00497320504C412066696C616D65BB
:103C20006E74206C6F616465643F0043616E636510
:103C30006C0046696C616D656E740053656C6563FC
:103C40007420504C412066696C616D656E743A0059
:103C500052756E6E696E672057697A61726420775B
:103C6000696C6C2064656C6574652063757272653F
:103C70006E742063616C6962726174696F6E207228
:103C80006573756C747320616E64207374617274F3
:103C90002066726F6D2074686520626567696E6E5C
:103CA000696E672E20436F6E74696E75653F0050B4
:103CB000726568656174696E67206E6F7A7A6C658B
:103CC0002E20506C6561736520776169742E004504
:103CD0006A65637400556E6C6F616400557365208E
:103CE000756E6C6F616420746F2072656D6F7665A0
:103CF0002066696C616D656E74203120696620698B
:103D0000742070726F747275646573206F7574734C
:103D1000696465206F662074686520726561722031
:103D20004D4D5520747562652E2055736520656A6A
:103D3000656374206966206974206973206869640A
:103D400064656E20696E20747562652E004C6F612B
:103D500064696E672066696C616D656E7400506C95
:103D60006561736520696E7365727420504C4120E3
:103D700066696C616D656E7420746F20746865206F
:103D800065787472756465722C207468656E207035
:103D900072657373206B6E6F6220746F206C6F613D
:103DA000642069742E00506C6561736520696E73C0
:103DB00065727420504C412066696C616D656E744B
:103DC00020746F207468652066697273742074753E
:103DD0006265206F66204D4D552C207468656E20FD
:103DE000707265737320746865206B6E6F622074E7
:103DF0006F206C6F61642069742E00596F752063A9
:103E0000616E20616C7761797320726573756D6581
:103E1000207468652057697A6172642066726F6DDC
:103E20002043616C6962726174696F6E202D3E205F
:103E300057697A6172642E00506C65617365206306
:103E40006865636B206F75722068616E64626F6F66
:103E50006B20616E642066697820746865207072DA
:103E60006F626C656D2E205468656E207265737587
:103E70006D65207468652057697A61726420627983
:103E8000207265626F6F74696E6720746865207058
:103E900072696E7465722E00416C6C2069732064C7
:103EA0006F6E652E204861707079207072696E7433
:103EB000696E672100506C6561736520636C656194
:103EC0006E206865617462656420616E6420746848
:103ED000656E20707265737320746865206B6E6FF9
:103EE000622E00446F20796F752077616E742074A4
:103EF0006F20726570656174206C617374207374D7
:103F0000657020746F20726561646A7573742064D3
:103F1000697374616E6365206265747765656E2090
:103F20006E6F7A7A6C6520616E6420686561746278
:103F300065643F00492077696C6C2073746172740A
:103F400020746F207072696E74206C696E652061D8
:103F50006E6420796F752077696C6C20677261647C
:103F600075616C6C79206C6F776572207468652060
:103F70006E6F7A7A6C6520627920726F74617469F1
:103F80006E6720746865206B6E6F622C20756E748E
:103F9000696C20796F75207265616368206F707439
:103FA000696D616C206865696768742E2043686577
:103FB000636B207468652070696374757265732023
:103FC000696E206F75722068616E64626F6F6B201E
:103FD000696E20636861707465722043616C696208
:103FE000726174696F6E2E004E6F77204920776979
:103FF0006C6C2063616C69627261746520646973C2
:1040000074616E6365206265747765656E2074699E
:1040100070206F6620746865206E6F7A7A6C6520F8
:10402000616E642068656174626564207375726690
:104030006163652E00497320697420504C412066ED
:10404000696C616D656E743F0053656C65637420C7
:104050006E6F7A7A6C652070726568656174207421
:10406000656D7065726174757265207768696368E3
:10407000206D61746368657320796F7572206D615E
:1040800074657269616C2E004E6F772049207769E4
:104090006C6C2070726568656174206E6F7A7A6CE2
:1040A0006520666F7220504C412E0049732066696E
:1040B0006C616D656E74206C6F616465643F00496E
:1040C000732066696C616D656E742031206C6F6160
:1040D0006465643F004E6F7720492077696C6C20DF
:1040E00070726568656174206E6F7A7A6C6520669F
:1040F0006F7220504C412E00492077696C6C207201
:10410000756E207A2063616C6962726174696F6E8A
:10411000206E6F772E004E6F772072656D6F76651B
:10412000207468652074657374207072696E7420E1
:1041300066726F6D20737465656C20736865657455
:104140002E00506C656173652072656D6F76652019
:104150007368697070696E672068656C70657273EA
:104160002066697273742E00492077696C6C207226
:10417000756E2078797A2063616C69627261746906
:104180006F6E206E6F772E2049742077696C6C20DB
:1041900074616B6520617070726F782E20313220EF
:1041A0006D696E732E0046697273742C20492077F6
:1041B000696C6C2072756E207468652073656C661E
:1041C0007465737420746F20636865636B206D6F12
:1041D000737420636F6D6D6F6E20617373656D62B4
:1041E0006C792070726F626C656D732E0048692C5B
:1041F000204920616D20796F7572204F726967695F
:104200006E616C205061796E6520522644206933BE
:10421000207072696E7465722E20576F756C642001
:10422000796F75206C696B65206D6520746F2067F0
:104230007569646520796F75207468726F75676839
:10424000207468652073657475702070726F636583
:1042500073733F00452D636F7272656374005A2D4E
:10426000636F727265637400592D636F7272656358
:104270007400582D636F72726563740053706F6FB2
:104280006C4A6F696E2020205B4E2F415D00537099
:104290006F6F6C4A6F696E2020205B6F66665D00F1
:1042A00053706F6F6C4A6F696E202020205B6F6EB9
:1042B0005D00536F756E642020202020205B6C6FA2
:1042C00075645D00536F756E642020202020205B94
:1042D0006D7574655D00536F756E64202020205BE2
:1042E00073696C656E745D00536F756E6420202079
:1042F0002020205B6F6E63655D00536F756E6420D8
:1043000020202020205B6C6F75645D00536F7274F9
:10431000202020202020205B6E6F6E655D00536F93
:1043200072742020205B616C7068616265745D004E
:10433000536F7274202020202020205B74696D65EB
:104340005D005344206361726420205B6E6F726D68
:10435000616C5D0053442063617264205B666C7322
:10436000684169725D0052506920706F727420203C
:104370002020205B6F6E5D0052506920706F727458
:10438000202020205B6F66665D0054656D702E20D6
:1043900063616C2E2020205B6F6E5D0054656D7034
:1043A0002E2063616C2E20205B6F66665D004C6979
:1043B0006E2E20636F7272656374696F6E004D6557
:1043C000736820626564206C6576656C696E670051
:1043D0004D4D55204D6F64655B537465616C746819
:1043E0005D004D4D55204D6F6465205B4E6F726DC5
:1043F000616C5D0046616E7320636865636B2020AD
:104400005B6F66665D0046616E7320636865636B13
:104410002020205B6F6E5D00462E206175746F6CEE
:104420006F6164205B6F66665D00462E2061757467
:104430006F6C6F616420205B6F6E5D00462E2061A3
:1044400075746F6C6F6164205B4E2F415D00446931
:104450007361626C65207374657070657273004D72
:104460006F766520617869730054656D706572615F
:104470007475726500473830004D3435004D343561
:10448000205A004737360057697A61726420737486
:104490006174653A2025640044697361626C65202B
:1044A0006661726D206D6F6465004661726D206E8D
:1044B000756D626572004D38340057697A617264B7
:1044C00020656E642073746174653A2025640A0067
:1044D0002046004731205A00204600473120450041
:1044E0004D3833006F6B0A00627573793A20706142
:1044F0007573656420666F7220696E7075740062F2
:104500007573793A2070617573656420666F7220E7
:104510007573657200627573793A2070726F6365A6
:104520007373696E6700000021104220633084407D
:10453000A550C660E770088129914AA16BB18CC172
:10454000ADD1CEE1EFF13112100273325222B552E9
:104550009442F772D662399318837BB35AA3BDD3C2
:104560009CC3FFF3DEE36224433420040114E664B9
:10457000C774A44485546AA54BB528850995EEE512
:10458000CFF5ACC58DD55336722611163006D776C9
:10459000F6669556B4465BB77AA719973887DFF762
:1045A000FEE79DD7BCC7C448E5588668A778400891
:1045B000611802282338CCC9EDD98EE9AFF94889B2
:1045C00069990AA92BB9F55AD44AB77A966A711A29
:1045D000500A333A122AFDDBDCCBBFFB9EEB799B02
:1045E000588B3BBB1AABA66C877CE44CC55C222C79
:1045F000033C600C411CAEED8FFDECCDCDDD2AAD52
:104600000BBD688D499D977EB66ED55EF44E133E08
:10461000322E511E700E9FFFBEEFDDDFFCCF1BBFA1
:104620003AAF599F788F8891A981CAB1EBA10CD17B
:104630002DC14EF16FE18010A100C230E320045083
:10464000254046706760B9839893FBA3DAB33DC3F6
:104650001CD37FE35EF3B1029012F322D2323542D3
:10466000145277625672EAB5CBA5A89589856EF586
:104670004FE52CD50DC5E234C324A0148104667423
:10468000476424540544DBA7FAB79987B8975FE7D6
:104690007EF71DC73CD7D326F2369106B016576673
:1046A0007676154634564CD96DC90EF92FE9C8995E
:1046B000E9898AB9ABA94458654806782768C018C3
:1046C000E1088238A3287DCB5CDB3FEB1EFBF98B36
:1046D000D89BBBAB9ABB754A545A376A167AF10A13
:1046E000D01AB32A923A2EFD0FED6CDD4DCDAABD46
:1046F0008BADE89DC98D267C076C645C454CA23C63
:10470000832CE01CC10C1FEF3EFF5DCF7CDF9BAF15
:10471000BABFD98FF89F176E367E554E745E932EB2
:10472000B23ED10EF01E7C3C3E5E2B3D3F2F5B5DCA
:104730003B2C2A225C0043757272656E74005573BF
:10474000656420647572696E67207072696E7400AA
:104750005049442063616C2E2066696E69736865F8
:1047600064005049442063616C2E202020202020CA
:10477000202020202000506C6561736520776169DE
:1047800074004D313137204669727374206C617941
:1047900065722063616C2E005072696E74207061C6
:1047A0007573656400496E76616C69642050494494
:1047B0002063616C2E20726573756C74732E204EAD
:1047C0006F742073746F72656420746F2045455058
:1047D000524F4D2E004D353030004731205A313583
:1047E00020463135303000473931004731205835C7
:1047F00030205931393020453020463730303000B4
:10480000473930004D373032004D373032204300C9
:104810004D3730322055004D373032004D37303271
:104820002043004731205A313520463135303000A1
:10483000473931004731205835302059313930203F
:104840004530204637303030004D3833004739305E
:10485000004D3834004D313034205330004D383461
:10486000004D373032204300473120583130205935
:10487000313830204634303030004731205A313022
:104880002046313330302E303030004D313430203E
:104890005330004D31303420533000473120452D06
:1048A000302E30373530302046323130302E3030F7
:1048B000303030004D31303700473120583530200E
:1048C0005935352045332E363237373300473120BE
:1048D00058323030205935352045302E3439333870
:1048E0003600473120583230302059373520453393
:1048F0002E3632373733004731205835302059377C
:10490000352045302E34393338360047312058357C
:1049100030205939352045332E363237373300476A
:10492000312058323030205939352045302E343935
:104930003338360047312058323030205931313544
:104940002045332E36323737330047312058353043
:1049500020593131352045302E343933383600472F
:10496000312058353020593133352045332E3632F9
:104970003737330047312058323030205931333502
:104980002045302E3636313734004731205832300A
:104990003020593135352045322E36323737330005
:1049A00047312058313030205931353520453200DB
:1049B00047312058373520593135352045322E358D
:1049C000004731204631303830004731205A302EF0
:1049D0003135302046373230302E303030004731DC
:1049E0002058353020593135350047312046343094
:1049F0003030004D323034205331303030004731C8
:104A0000205A352046373230302E30303000473192
:104A100020452D312E353030303020463231303087
:104A20002E3030303030004D3833004739300047B9
:104A30003231004739322045302E3000473120587E
:104A40003130302E30204531322E35204631303055
:104A5000302E30004731205836302E302045392E48
:104A6000302046313030302E300047312058352E3E
:104A7000302045342E302046313030302E30004743
:104A800031205A302E32302046313030302E300036
:104A90004731205835352E302045323520463134C7
:104AA00030302E3000473120592D322E3020463103
:104AB0003030302E3000473120583234302E302004
:104AC0004532352E30202046323230302E300047ED
:104AD00039322045302E30004731205A302E3320D5
:104AE00046313030302E30004731205835352E30A9
:104AF0002045382E302046323030302E30004731BD
:104B00002058352E30204533322E30204631383073
:104B1000302E30004731205835352E302045333285
:104B20002E302046313037332E30004731205A3076
:104B30002E342046313030302E3000473120592D70
:104B4000332E302046313030302E30004D38330097
:104B50004739322045302E3000473238004D313051
:104B6000392053323135004D313930205336300041
:104B70004D31343020533630004D313034205332F3
:104B80003135004D3130370054656D702E20636132
:104B90006C6962726174696F6E005265736574202E
:104BA00058595A2063616C6962722E005049442042
:104BB00063616C6962726174696F6E004265642042
:104BC0006C6576656C20636F7272656374004D6509
:104BD000736820426564204C6576656C696E670079
:104BE00043616C696272617465205A0043616C694B
:104BF00062726174652058595A0053656C66746519
:104C00007374202020202020202020004669727309
:104C100074206C617965722063616C2E0057697A2B
:104C2000617264004C6F61642066696C616D656ED1
:104C3000742035004C6F61642066696C616D656E2F
:104C4000742034004C6F61642066696C616D656E20
:104C5000742033004C6F61642066696C616D656E11
:104C6000742032004C6F61642066696C616D656E02
:104C7000742031004C6F616420616C6C004C6F617A
:104C8000642066696C616D656E742035004C6F61DF
:104C9000642066696C616D656E742034004C6F61D0
:104CA000642066696C616D656E742033004C6F61C1
:104CB000642066696C616D656E742032004C6F61B2
:104CC000642066696C616D656E74203100456A65AB
:104CD00063742066696C616D656E74203500456A89
:104CE0006563742066696C616D656E74203400457F
:104CF0006A6563742066696C616D656E742033004B
:104D0000456A6563742066696C616D656E742032F6
:104D100000456A6563742066696C616D656E742018
:104D20003100506C656173652070756C6C206F7517
:104D3000742066696C616D656E7420696D6D656463
:104D4000696174656C7900556E6C6F6164696E673A
:104D50002066696C616D656E7400526573756D696E
:104D60006E67207072696E7400537570706F727424
:104D7000004661696C207374617473204D4D550059
:104D80004661696C20737461747300537461746953
:104D9000737469637320200043616C69627261748B
:104DA000696F6E004175746F4C6F61642066696C49
:104DB000616D656E7400456A6563742066696C6137
:104DC0006D656E7400556E6C6F61642066696C6110
:104DD0006D656E74004C6F616420746F206E6F7A25
:104DE0007A6C65004C6F61642066696C616D656EFC
:104DF00074004E6F205344206361726400507269E6
:104E00006E742066726F6D20534400526573756D29
:104E100065207072696E74005061757365207072E0
:104E2000696E7400507265686561740054756E65D2
:104E3000004C6976652061646A757374205A004974
:104E40006E666F2073637265656E0046696E697386
:104E500068696E67206D6F76656D656E747300535B
:104E60006F756E642020202020205B6C6F75645D60
:104E700000536F756E642020202020205B6D7574B8
:104E8000655D00536F756E64202020205B73696C34
:104E9000656E745D00536F756E64202020202020A5
:104EA0005B6F6E63655D00536F756E64202020201C
:104EB00020205B6C6F75645D004D4D55204D6F6417
:104EC000655B537465616C74685D004D4D55204D94
:104ED0006F6465205B4E6F726D616C5D0043726143
:104EE0007368206465742E20205B4E2F415D004363
:104EF00072617368206465742E2020205B6F6E5D84
:104F0000004372617368206465742E20205B6F66B5
:104F1000665D004D6F6465202020205B53746561E1
:104F20006C74685D004D6F646520202020205B4E0E
:104F30006F726D616C5D0046696C2E2073656E73D7
:104F40006F7220205B6F6E5D0046696C2E2073656A
:104F50006E736F72205B6F66665D004368616E679B
:104F6000652066696C616D656E7400466C6F7700D4
:104F70005370656564004D61676E65747320636F7F
:104F80006D702E5B4E2F415D004D61676E657473D1
:104F900020636F6D702E5B4F66665D004D61676EBE
:104FA00065747320636F6D702E205B4F6E5D005AC9
:104FB0002D70726F6265206E722E202020205B3370
:104FC0005D005A2D70726F6265206E722E20202057
:104FD000205B355D005A2D70726F6265206E722EF7
:104FE000202020205B315D004D657368202020204B
:104FF00020202020205B3778375D004D65736820C6
:1050000020202020202020205B3378335D00466163
:105010006E20737065656400426564004E6F7A7A35
:105020006C650053657474696E6773005072696EC5
:10503000742061626F7274656400596573004E6F0D
:105040000053746F70207072696E74004D343400B8
:105050004732382057004739390044697361626C20
:1050600065206661726D206D6F64653F0043686FF7
:105070006F736520636F6C6F723A004661726D20CA
:105080006E756D626572004D36303000534420639A
:10509000617264206F6B006F70656E526F6F742069
:1050A0006661696C656400766F6C756D652E696EFE
:1050B0006974206661696C656400534420696E6997
:1050C00074206661696C0057726974696E67207438
:1050D0006F2066696C653A200046696C65207365CF
:1050E0006C6563746564002053697A653A200046F4
:1050F000696C65206F70656E65643A20006F70653D
:105100006E206661696C65642C2046696C653A2086
:10511000001F1F1F1F1F1F1F1F2E002E004E6F7707
:105120002066726573682066696C653A20004E6F70
:105130007720646F696E672066696C653A2000228B
:1051400020706F73002220706172656E743A2200C5
:10515000535542524F5554494E452043414C4C20E3
:105160007461726765743A2200747279696E67209F
:10517000746F2063616C6C207375622D67636F645C
:10518000652066696C6573207769746820746F6F39
:10519000206D616E79206C6576656C732E204D41B3
:1051A00058206C6576656C2069733A002E00536F49
:1051B0007274696E672066696C657300536F6D6504
:1051C0002066696C65732077696C6C206E6F742043
:1051D000626520736F727465642E204D61782E2095
:1051E0004E6F2E206F662066696C657320696E2095
:1051F0003120666F6C64657220666F7220736F7207
:1052000074696E67206973203130302E0077323533
:10521000783230636C5F63666D0A007732357832BE
:1052200030636C5F656E7465720A0020746F6F2066
:105230006C6F6E6720657874727573696F6E20701D
:10524000726576656E7465640020636F6C642065BA
:105250007874727573696F6E2070726576656E749E
:105260006564001000C90210012C01400122017088
:10527000011801B0010E01F00104015002FA00B062
:1052800002F0003003E600D003DC009004D200708E
:1052900005C800A006BE000008B400B009AA00D0EE
:1052A0000BA000600E960060118C0000158200209B
:1052B000197800C01D6E00A0226400B0275A00902B
:1052C0002C500000314600E0343C00103832009091
:1052D0003A2800603C1E00A03D1400803E0A0020D9
:1052E0003F000070012C0190012701B0012201C094
:1052F000011D01F00118011002130130020E0160BE
:1053000002090190020401C002FF000003FA0040FC
:1053100003F5008003F000D003EB002004E60070EA
:1053200004E100E004DC004005D700C005D20040E5
:1053300006CD00D006C8008007C3003008BE00F0CC
:1053400008B900C009B400B00AAF00B00BAA00D081
:105350000CA500000EA000500F9B00C0109600503E
:1053600012910000148C00C0158700B0178200B0A5
:10537000197D00D01B7800001E730040206E009045
:10538000226900F024640040275F0090295A00E061
:105390002B5500102E500020304B0010324600E0FC
:1053A00033410090353C001037370070383200A090
:1053B000392D00B03A2800A03B2300603C1E0010AD
:1053C0003D1900903D1400103E0F00703E0A00C0D1
:1053D0003E0500003F000090137D00B0157800F0FE
:1053E000177300601A6E00F01C6900A01F64005063
:1053F000225F0020255A00E0275500902A50002007
:105400002D4B00A02F4600F031410010343C00F03D
:10541000353700A037320020392D00603A2800705F
:105420003B2300603C1E00203D1900C03D1400409D
:105430003E0F00A03E0A00F03E0500403F00007015
:105440003FFBFF903FF6FFB03FF1FFC03FECFFD0C6
:105450003FE7FFE03FE2FFF03FDDFFF03FD8FF20F6
:10546000484F54454E4420544845524D414C2052DB
:10547000554E41574159002048454154424544202A
:10548000544845524D414C2052554E4157415900C8
:10549000544845524D414C2052554E4157415900B8
:1054A00042454420544845524D414C2052554E41AE
:1054B0005741590020544845524D414C2052554EB9
:1054C00041574159202820505245484541542048D1
:1054D0004F54454E44290020544845524D414C20DC
:1054E00052554E4157415920282050524548454178
:1054F00054204845415442454429005052454845AE
:105500004154204552524F5200424544205052458A
:1055100048454154204552524F52004572723A203C
:105520004D494E54454D50204245440054656D70E0
:105530006572617475726520686561746564206266
:105540006564207377697463686564206F66662E8E
:10555000204D494E54454D502074726967676572FD
:1055600065642021004572723A204D494E54454DE4
:1055700050003A20457874727564657220737769BB
:105580007463686564206F66662E204D494E5445ED
:105590004D5020747269676765726564202100222E
:1055A000206661696C65643A2042756666657220A2
:1055B00066756C6C21002200256920686F75727316
:1055C000202569206D696E757465730054494D45D9
:1055D0004F55543A004D3131300046756C6C2052B5
:1055E000582042756666657200656E717565696EF4
:1055F00067202200446F6E65207072696E74696E58
:10560000672066696C65005072696E7465722073FC
:10561000746F707065642064756520746F206572A6
:10562000726F72732E2046697820746865206572E7
:10563000726F7220616E6420757365204D3939393F
:1056400020746F20726573746172742E2028546503
:105650006D7065726174757265206973207265730F
:1056600065742E20536574206974206166746572B8
:105670002072657374617274696E6729004E6F20C1
:105680004C696E65204E756D62657220776974682D
:1056900020636865636B73756D2C204C6173742097
:1056A0004C696E653A20004E6F20436865636B73EA
:1056B000756D2077697468206C696E65206E756DF4
:1056C0006265722C204C617374204C696E653A20BF
:1056D00000636865636B73756D206D69736D6174CC
:1056E00063682C204C617374204C696E653A20000D
:1056F0004C696E65204E756D626572206973206E0F
:105700006F74204C617374204C696E65204E756D0A
:105710006265722B312C204C617374204C696E656C
:105720003A200053544F505045442E200041786990
:1057300073206C656E67746820646966666572655F
:105740006E63653A252E33660A004D656173757286
:1057500065642061786973206C656E6774683A25AA
:105760002E33660A002563204158495320534731A0
:105770003D25640A002D2D2D2D2D2D2D2D2D2D2D6A
:105780002D2D2D2D2D2D2D2D2D0000000000001173
:105790000A0446616C736520747269676765726993
:1057A0006E6700537761707065640046726F6E7447
:1057B0002F6C6566742066616E73004178697300B2
:1057C00041786973206C656E677468004C6F6F7305
:1057D000652070756C6C657900456E6473746F70CC
:1057E000206E6F742068697400456E6473746F7006
:1057F000004D6F746F7200456E6473746F70730048
:10580000576972696E67206572726F7200426564D3
:10581000202F20486561746572004E6F7420636F9D
:105820006E6E6563746564004865617465722F54BB
:105830006865726D6973746F7200506C6561736531
:1058400020636865636B203A0053656C667465730A
:1058500074206572726F7220210046696C616D65FB
:105860006E742073656E736F72005072696E74206F
:1058700066616E3A0045787472756465722066617F
:105880006E3A0043616C6962726174696E67206888
:105890006F6D650053656C6674657374206661692D
:1058A0006C6564202000416C6C20636F72726563CC
:1058B0007420202020202000436865636B696E6798
:1058C0002073656E736F72732000436865636B6944
:1058D0006E6720686F74656E64202000436865639E
:1058E0006B696E6720626564202020202000436879
:1058F00065636B696E67205A2061786973202000A8
:10590000436865636B696E6720592061786973200D
:105910002000436865636B696E6720582061786971
:1059200073202000436865636B696E6720656E6451
:1059300073746F7073004572726F72202D207374D0
:1059400061746963206D656D6F7279206861732081
:105950006265656E206F7665727772697474656EC4
:1059600000436172642072656D6F76656400436FF9
:105970006E74696E7565207769746820616E6F74E6
:1059800068657220626F7764656E3F002500202095
:10599000202020200020202020202000455241539C
:1059A000494E4720616C6C206461746100466163FC
:1059B000746F72792052455345540000007F4300B4
:1059C0008054430000524300000000000080C09A51
:1059D00099193E00000000000080C09A99193E65A8
:1059E00072726F723A20756E6B6E6F776E206D6F8C
:1059F00076650A006E6F206D6F76650A00542D6320
:105A00006F64650A00756E6C6F61640A006C6F618B
:105A1000640A006D6D755F6765745F726573706FA2
:105A20006E7365202D20626567696E206D6F7665E7
:105A30003A20006D6D755F6765745F726573706F96
:105A40006E736528292072657475726E696E673A87
:105A50002025640A00556E6C6F6164696E6720666C
:105A6000696E697368656420320A00556E6C6F61F7
:105A70006420320A00556E6C6F6164696E6720663F
:105A8000696E697368656420310A00556E6C6F61D8
:105A90006420310A004D4D55207374617274732077
:105AA000726573706F6E64696E670A004D4D5520A4
:105AB0006E6F7420726573706F6E64696E670A0032
:105AC0000000803F555585410000803F0000C841DF
:105AD00000000040555505420000C03F000048420C
