:100000000C94EA330C941B340C941B340C941B3466
:100010000C941B340D94B5200C941B340C941B349D
:100020000D942A240C941B340C941B340C941B3414
:100030000C941B340C941B340C941FCE0D94DC4593
:100040000C941B340D9495070C941B340C941B34A6
:100050000C941B340C941B340C941B340C9494851A
:100060000C941B340D9450410C941B340C941B3491
:100070000C941B340C941B340C941B340C941B34C4
:100080000C941B340C941B340C941B340C941B34B4
:100090000D940C410C941B340C941B340C941B34A5
:1000A0000C941B340C941B340C941B340C941B3494
:1000B0000C941B340C941B340C941B340C941B3484
:1000C0000C941B340C941B340C941B340D94F4448A
:1000D0000C941B340C941B340C941B340C941B3464
:1000E0000C941B34F44CFA4C004D0B4D164D9B4DAB
:1000F000214D2A4D334D3E4D494D544D644D6F4D6C
:100100009B4D7A4D854D904DB085BA85C885D58576
:10011000E785EE852A860C862286A786A986A7868D
:10012000A986A786A986AB86AD866CC884C896C802
:10013000A3C8ADC8DDC8FEC805C913C918C91AC906
:1001400024C932C943C938DA3BDA2ADA2EDA34DA7A
:1001500072DA3FDA43DA49DA4DDA51DA57DA5BDA42
:100160005FDA72DA65DA69DA6DDA7CFB85FB2AFB25
:10017000F9FAC9FA6AFEB6FBD5FC5BFDB1FDCDFD0F
:1001800004FE9801AE017001D4017601A60154016C
:10019000D001A201B801B601C201C801C801DE0147
:1001A000C801DE01E00196019C01F801C601E401ED
:1001B000C00172018401D8015E01E801EC01AA01CD
:1001C0006C016C016C016C016C016C016C016C01C7
:1001D000EA01A801AC0166018201084AD73B3BCE87
:1001E000016E84BCBFFDC12F3D6C74319ABD568336
:1001F0003DDA3D00C77F11BED9E4BB4C3E916BAAEE
:10020000AABE000000803F05A84CCDB2D44EB9383C
:1002100036A9020C50B9918688083CA6AAAA2ABE23
:10022000000000803F07634236B79BD8A71A3968A1
:100230005618AEBAAB558C1D3CB7CC5763BD6DEDAF
:10024000FD753EF6177231BF000000803F080000C8
:1002500000BE922449123EABAAAA2ABECDCCCC4CF9
:100260003E00000080BEABAAAAAA3E00000000BF6C
:10027000000000803F0000000000084178D3BB432D
:1002800087D1133D190E3CC3BD4282AD2B3E68ECB5
:100290008276BED98FE1A93E4C80EFFFBE01C4FF3C
:1002A0007F3F0000000000000D94C0130D94B57353
:1002B0000D94A4320D94162D0D94AF2C0D943F681F
:1002C0000D9488320D94F92B0D94AE720D945C67E9
:1002D0000D94FB320D946F330D94C9640D949D32CF
:1002E0000D9486130D94C0670D94BD320D94B41314
:1002F0000D94AA960D94772D0D94CE320D946673BD
:100300000D94A7330D945E670D94B5670D94DD329F
:100310000D94F7740D948F320D94EF2B0D940331DF
:100320000D94812C0D9481320D942D2E0D94273235
:100330000D9472130D948C330D94C6640D94342B6C
:100340000D94C33E0D94DC130D948E2B0D94BA13B3
:100350000D9456670D9424680D9458670D9480137E
:100360000D9428300D94DD2C0D9437980D940114C4
:100370000D94EA130D9481300D9478320D949632D9
:100380000D94CB670D940F140D94032C0D94E1671D
:100390000D941E320D94AA3E0D9435330D94542EB7
:1003A0000D94CE130D9463320D9498130D945070E8
:1003B0000D944F680D94852B0D94B6720D942132D7
:1003C0000D9424320D9452330D94D6670D94897494
:1003D0000D948E670D94C4640D9460670D94CD30B8
:1003E0000D9418330D940C700D9428340D94A5724F
:1003F0000D9411686E616E00696E66004E414E4943
:100400004E495459494E46CDCCCC3D0AD7233C17D2
:10041000B7D13877CC2B329595E6241FB14F0A001F
:100420000020410000C84200401C4620BCBE4CCA0F
:100430001B0E5AAEC59D7400407A10F35A00A0728C
:100440004E18090010A5D4E80000E876481700000F
:10045000E40B54020000CA9A3B000000E1F50500DD
:100460000080969800000040420F000000A0860126
:10047000000000102700000000E8030000000064F6
:1004800000000000000A0000000000010000000061
:10049000002C76D888DC674F0823DFC1DFAE59E136
:1004A000B1B796E5E3E453C63AE651997696E8E6A5
:1004B000C28426EB898C9B62ED407C6FFCEFBC9C78
:1004C0009F40F2BAA56FA5F490055A2AF75C936B8A
:1004D0006CF9676DC11BFCE0E40D47FEF520E6B545
:1004E00000D0ED902E0300943577050080841E081F
:1004F0000000204E0A000000C80C333333330F983D
:100500006E12831141EF8D2114893BE65516CFFE03
:10051000E6DB18D1844B381BF77C1D901DA4BBE48F
:1005200024203284725E228100C9F124ECA1E53DD1
:10053000276364696E6F70737578585B002564205B
:100540006279746573207772697474656E20746F54
:1005500020454550524F4D2061742061646472659E
:10056000737320307825303478004433202D2052A6
:100570006561642F577269746520454550524F4D2F
:100580000A0020436F756E7420583A2000534420AF
:100590007072696E74696E67206279746520004EAE
:1005A0006F7420696E206661726D206D6F64652EB8
:1005B000004163746976652045787472756465726C
:1005C0003A2000496E76616C6964206578747275B2
:1005D000646572005A204F666673657400556E6BD1
:1005E0006E6F776E20636F6D6D616E643A202200CE
:1005F0004D32303020496E76616C696420657874C4
:10060000727564657220007A5F6D61783A20007AB5
:100610005F6D696E3A2000795F6D61783A200079EC
:100620005F6D696E3A2000785F6D61783A20006FE7
:1006300070656E0054524947474552454400785F03
:100640006D696E3A20005265706F7274696E672032
:10065000656E6473746F70207374617475730000D9
:1006600053494C454E54004E4F524D414C0025537A
:10067000204D4F44453A2050657263656E74206486
:100680006F6E653A2025643B207072696E74207429
:10069000696D652072656D61696E696E6720696E4E
:1006A000206D696E733A2025640A00456E642066E9
:1006B000696C65206C69737400426567696E2066B9
:1006C000696C65206C697374000A50494E4441207E
:1006D00074656D70657261747572653A20252E318E
:1006E00066205A20736869667420286D6D293A2047
:1006F000252E3366000A537465703A2025642F3620
:100700000A000A537465703A2025642F3620287336
:100710006B6970706564290A50494E4441207465C4
:100720006D70657261747572653A202564205A2077
:10073000736869667420286D6D293A300A000A5A78
:1007400045524F3A20252E33660A00737461727445
:100750002074656D70657261747572653A20252E1E
:1007600031660A0025642020252E3266002553209C
:10077000583A20252E356620593A20252E356620F8
:100780005A3A20252E35660A00536C6565702E2E68
:100790002E004E6F7420696E206661726D206D6F41
:1007A00064652E0025640045303A25642052504D82
:1007B0000A50524E303A25642052504D0A002564AA
:1007C00000442D31202D20456E646C657373206CC0
:1007D0006F6F700A004175746F0020452F443D0013
:1007E000416476616E6365204B3D004D32323020AE
:1007F00053256900255346696C616D656E742073DD
:10080000657474696E67733A2044697361626C65DC
:10081000640A00255346696C616D656E74207365CA
:100820007474696E67733A0A25532020204D323064
:10083000302044252E32660A0025535265747261B9
:1008400063743A20533D4C656E67746820286D6D63
:100850002920463A537065656420286D6D2F6D29F7
:10086000205A3A205A4C69667420286D6D290A2551
:10087000532020204D3230372053252E326620461B
:10088000252E3266205A252E32660A25535265637C
:100890006F7665723A20533D4578747261206C65BD
:1008A0006E67746820286D6D2920463A537065651F
:1008B0006420286D6D2F6D290A25532020204D328C
:1008C00030382053252E32662046252E32660A25E2
:1008D000534175746F2D526574726163743A20537D
:1008E0003D3020746F2064697361626C652C203127
:1008F00020746F20696E74657270726574206578FB
:1009000074727564652D6F6E6C79206D6F7665738A
:10091000206173207265747261637473206F72203A
:100920007265636F7665726965730A2553202020AE
:100930004D323039205325640A0025535049442054
:10094000686561746265642073657474696E677349
:100950003A0A25532020204D3330342050252E32A2
:10096000662049252E32662044252E32660A00254F
:10097000535049442073657474696E67733A0A254D
:10098000532020204D3330312050252E326620490F
:10099000252E32662044252E32660A0025535374D4
:1009A0006570732070657220756E69743A0A2553FC
:1009B00020204D39322058252E32662059252E32DE
:1009C00066205A252E32662045252E32660A25538A
:1009D0005553746570207265736F6C7574696F6EB2
:1009E0003A200A2553204D333530205825642059AC
:1009F0002564205A2564204525640A25534D6178D5
:100A0000696D756D20666565647261746573202D0E
:100A1000206E6F726D616C20286D6D2F73293A0AFC
:100A2000255320204D3230332058252E3266205950
:100A3000252E3266205A252E32662045252E326616
:100A40000A25534D6178696D756D20666565647220
:100A500061746573202D20737465616C746820283F
:100A60006D6D2F73293A0A255320204D32303320E3
:100A700058252E32662059252E3266205A252E32D0
:100A8000662045252E32660A25534D6178696D75BD
:100A90006D20616363656C65726174696F6E202D92
:100AA000206E6F726D616C20286D6D2F7332293A44
:100AB0000A255320204D3230312058256C7520599D
:100AC000256C75205A256C752045256C750A2553B3
:100AD0004D6178696D756D20616363656C657261E8
:100AE00074696F6E202D20737465616C74682028A2
:100AF0006D6D2F7332293A0A255320204D32303143
:100B00002058256C752059256C75205A256C752048
:100B100045256C750A2553416363656C6572617484
:100B2000696F6E3A20533D616363656C65726174F1
:100B3000696F6E2C20543D7265747261637420611C
:100B40006363656C65726174696F6E0A255320205A
:100B50004D3230342053252E32662054252E3266F5
:100B60000A2553416476616E63656420766172691B
:100B700061626C65733A20533D4D696E2066656510
:100B8000647261746520286D6D2F73292C20543D8B
:100B90004D696E2074726176656C2066656564725D
:100BA00061746520286D6D2F73292C20423D6D697D
:100BB0006E696D756D207365676D656E74207469FF
:100BC0006D6520286D73292C20583D6D6178696D05
:100BD000756D205859206A65726B20286D6D2F73D2
:100BE000292C20205A3D6D6178696D756D205A2041
:100BF0006A65726B20286D6D2F73292C2020453D6E
:100C00006D6178696D756D2045206A65726B20286D
:100C10006D6D2F73290A255320204D323035205316
:100C2000252E32662054252E32662042252E32662D
:100C30002058252E32662059252E3266205A252E20
:100C400032662045252E32660A2553486F6D652091
:100C50006F666673657420286D6D293A0A255320E6
:100C6000204D3230362058252E32662059252E321E
:100C700066205A252E32660A004625642025640A1D
:100C8000004D4D55203C3D202746256420256427F6
:100C90000A00504944204175746F74756E65206672
:100CA000696E697368656421205075742074686585
:100CB000206C617374204B702C204B6920616E6432
:100CC000204B6420636F6E7374616E747320667260
:100CD0006F6D2061626F766520696E746F20436F5F
:100CE0006E66696775726174696F6E2E680050492F
:100CF00044204175746F74756E65206661696C651A
:100D000064212074696D656F75740020403A005449
:100D10003A00423A00504944204175746F74756E30
:100D200065206661696C6564212054656D7065722B
:100D3000617475726520746F6F2068696768002040
:100D40004B643A2000204B693A2000204B703A2037
:100D50000020436C61737369632050494420002074
:100D600054753A2000204B753A2000206D61783A86
:100D70002000206D696E3A200020643A2000206235
:100D80006961733A200020453A00205A3A00205900
:100D90003A0020453A00205A3A0020593A00583A81
:100DA00000005A30005A3100593000593100583093
:100DB00000583100456E642073746F70732064694D
:100DC0006167002E0044656C6574696F6E20666112
:100DD000696C65642C2046696C653A200046696C34
:100DE000652064656C657465643A000A002F000A2A
:100DF000004E6F74205344207072696E74696E6780
:100E0000005072696E7420736176656400534420EB
:100E10007072696E742070617573656400667365C5
:100E20006E736F725F726573746F72655F707269F3
:100E30006E745F616E645F636F6E74696E75650A70
:100E4000004F4B004241440052414D426F20464109
:100E50004E20002F2F20616374696F6E3A63616EBC
:100E600063656C0043524153485F43414E43454CD8
:100E70000043524153485F5245434F564552004349
:100E8000524153485F5245434F5645520022283243
:100E9000290054004475706C696361746520542D99
:100EA000636F64652069676E6F7265642E0A004423
:100EB00075706C696361746520542D636F6465207F
:100EC00069676E6F7265642E0A00496E76616C699F
:100ED00064205420636F64652E00556E6B6E6F77CF
:100EE0006E204D20636F64653A202573200A006EE2
:100EF0006F2076616C696420636F6D6D616E640054
:100F00002C20002C20002C20006E2F61002C2000B3
:100F10002C20002C20006E2F61002F00503A00572B
:100F200061697420666F722050494E44412074619B
:100F3000726765742074656D706572617475726531
:100F40003A004C414E472053454C20464F524345B2
:100F50004400222831290030303030303030302DFC
:100F6000303030302D303030302D303030302D308A
:100F7000303030303030303030303000205555494E
:100F8000443A0031002045585452554445525F437D
:100F90004F554E543A004A5058204D4B3353002081
:100FA0004D414348494E455F545950453A00312E12
:100FB0003000206261736564206F6E204D61726C39
:100FC000696E204649524D574152455F55524C3A41
:100FD00068747470733A2F2F6769746875622E6332
:100FE0006F6D2F707275736133642F5072757361FA
:100FF0002D4669726D776172652050524F544F4390
:101000004F4C5F56455253494F4E3A004649524D58
:10101000574152455F4E414D453A50727573612DAF
:101020004669726D7761726520004D31313320530E
:101030000020423A0020453A00543A0020413A004C
:1010400020503A002042403A0020403A00202F0031
:101050003A00205400202F0020423A00202F006F39
:101060006B20543A002569206D696E2C202569207B
:1010700073656300496E76616C6964204D20636F0F
:1010800064653A202573200A00556E6B6E6F776E8B
:10109000204720636F64653A202573200A004D6560
:1010A000736820626564206C6576656C696E672084
:1010B0006E6F74206163746976652E000A002020CB
:1010C000000A4D6561737572656420706F696E7496
:1010D000733A000A5A207365617263682068656913
:1010E0006768743A20002C004E756D20582C593AD0
:1010F0002000206D6963726F6E73004578636573BD
:101100007369766520626564206C6576656C696ECE
:101110006720636F7272656374696F6E3A20004274
:101120006564206C6576656C696E67206661696CC4
:1011300065642E2053656E736F72207472696767E1
:101140006572656420746F6F20686967682E0A0095
:10115000426564206C6576656C696E6720666169BE
:101160006C65642E2053656E736F722064697363BF
:101170006F6E6E6563746564206F72206361626C6C
:10118000652062726F6B656E2E0A004732382057F9
:10119000300050494E44412070726F626520636197
:1011A0006C6962726174696F6E207374617274002D
:1011B000473238205730004D3234005345545F4396
:1011C000484F505F005345545F535445505F0053A0
:1011D00045545F574156455F00544D435F004352AD
:1011E0004153485F00472D636F646520736C6963EA
:1011F000656420666F722061206469666665726549
:101200006E74206C6576656C2E20436F6E74696E0B
:1012100075653F00472D636F646520736C69636576
:101220006420666F72206120646966666572656E0F
:1012300074206C6576656C2E20506C65617365203A
:1012400072652D736C69636520746865206D6F64C9
:10125000656C20616761696E2E205072696E742022
:1012600063616E63656C6C65642E00472D636F640B
:101270006520736C6963656420666F722061206EFF
:1012800065776572206669726D776172652E205090
:101290006C65617365207570646174652074686540
:1012A000206669726D776172652E205072696E7466
:1012B0002063616E63656C6C65642E00472D636FFF
:1012C000646520736C6963656420666F72206120B9
:1012D0006E65776572206669726D776172652E2022
:1012E000436F6E74696E75653F00472D636F64656B
:1012F00020736C6963656420666F72206120646985
:1013000066666572656E74207072696E74657220AF
:10131000747970652E20506C656173652072652D3F
:10132000736C69636520746865206D6F64656C20FB
:10133000616761696E2E205072696E742063616E00
:1013400063656C6C65642E00472D636F6465207364
:101350006C6963656420666F7220612064696666EB
:101360006572656E74207072696E7465722074792E
:1013700070652E20436F6E74696E75653F00472D52
:10138000636F646520736C6963656420666F7220A7
:101390006120646966666572656E74207072696E3C
:1013A00074657220747970652E20436F6E74696E57
:1013B00075653F00472D636F646520736C696365D5
:1013C0006420666F72206120646966666572656E6E
:1013D00074207072696E74657220747970652E2045
:1013E000506C656173652072652D736C696365204F
:1013F000746865206D6F64656C20616761696E2E2D
:10140000205072696E742063616E63656C6C6564F4
:101410002E005072657373206B6E6F6220746F20A4
:1014200070726568656174206E6F7A7A6C65206190
:101430006E6420636F6E74696E75652E00506C6506
:1014400061736520707265737320746865206B6EBC
:101450006F6220746F20756E6C6F61642066696CBA
:10146000616D656E740052656D6F7665206F6C649A
:101470002066696C616D656E7420616E64207072A7
:1014800065737320746865206B6E6F6220746F20C3
:101490007374617274206C6F6164696E67206E652D
:1014A000772066696C616D656E742E00616E6420D4
:1014B000707265737320746865206B6E6F6200498B
:1014C0006E736572742066696C616D656E7400433D
:1014D0006F6C6F72206E6F7420636F7272656374CD
:1014E0000046696C616D656E74206E6F74206C6F60
:1014F00061646564004368616E67656420636F7250
:10150000726563746C793F004C6F6164696E67202B
:10151000636F6C6F72004368616E676520737563FB
:10152000636573732100506C65617365206F70652E
:101530006E2069646C657220616E642072656D6FE7
:1015400076652066696C616D656E74206D616E757F
:10155000616C6C792E005761732066696C616D65F2
:101560006E7420756E6C6F61642073756363657350
:101570007366756C3F00506C6561736520757067AC
:10158000726164652E004E6577206669726D7761C1
:1015900072652076657273696F6E20617661696C21
:1015A00061626C653A0057616974696E6720666FA5
:1015B000722050494E44412070726F626520636F03
:1015C0006F6C696E6700437261736820646574654F
:1015D000637465642E20526573756D652070726941
:1015E0006E743F0043726173682064657465637450
:1015F00065642E0045787472756465720043686F87
:101600006F73652065787472756465723A0043681B
:101610006F6F73652066696C616D656E743A004E1C
:101620006F206D6F76652E005761697420666F724A
:1016300020757365722E2E2E00536F6D65207072AB
:101640006F626C656D20656E636F756E7465726533
:10165000642C205A2D6C6576656C696E6720656E0A
:10166000666F72636564202E2E2E00537461626C67
:101670006520616D6269656E742074656D70657258
:1016800061747572652032312D32364320697320C2
:101690006E656564656420612072696769642073A2
:1016A00074616E6420697320726571756972656416
:1016B0002E00506C656173652072756E2058595A02
:1016C0002063616C6962726174696F6E2066697211
:1016D00073742E0073746172740A006164635F69CD
:1016E0006E69740A000A204F726967696E616C2026
:1016F0004A50580A2020205061796E6520522644B5
:1017000000436F6E74696E75652077697468206137
:101710006E6F7468657220626F7764656E3F002536
:1017200000202020202020002020202020200045F4
:10173000524153494E4720616C6C206461746100D2
:10174000466163746F727920524553455400466177
:1017500063746F7279205245534554004449534194
:10176000424C45440A00454E41424C4544004653D4
:10177000656E736F722025530A004D4B33534D4DE8
:10178000553253004E4F4D4B3353002E015365706D
:10179000203238203230313900436F6D70696C650A
:1017A000643A2000284A6F655F5072696E7473292D
:1017B0000053657020323820323031392031363ACA
:1017C00035303A32350020332E382E302D3236382F
:1017D000340A002055706C6F616420696E2070724D
:1017E0006F677265737300205A3A0020593A0020DF
:1017F000583A0043524153485F4445544543544589
:101800004458590043524153485F4445544543545A
:101810004544590043524153485F4445544543545D
:10182000454458004D32390045787465726E616CDC
:101830002053504920666C6173680A57323558321C
:1018400030434C206973206E6F74207265732D0ACB
:10185000706F6E64696E672E204C616E677561678C
:10186000650A73776974636820756E617661696C67
:1018700061626C652E0043726173684465746563D0
:10188000742044495341424C45440043726173689B
:1018900044657465637420454E41424C45442100C3
:1018A000573235583230434C206E6F742072657356
:1018B000706F6E64696E672E0A002020506C616E36
:1018C0006E657242756666657242797465733A2018
:1018D000002046726565204D656D6F72793A200073
:1018E000207C20417574686F723A2000204C61732F
:1018F0007420557064617465643A200020536F66EB
:101900007477617265205265736574002057617445
:101910006368646F67205265736574002042726F5C
:10192000776E206F7574205265736574002045785A
:101930007465726E616C20526573657400506F77C8
:1019400065725570006572726F7220777269746982
:101950006E6720746F2066696C6500656E647374D1
:101960006F7073206869743A2000446F6E6520734D
:101970006176696E672066696C652E006F6B004D3D
:101980004B3353206669726D7761726520646574AC
:101990006563746564206F6E204D4B3320707269EF
:1019A0006E746572004A5058204D4B3353204F4B94
:1019B0002E00426C61636B6F7574206F6363757288
:1019C0007265642E205265636F766572207072694D
:1019D0006E743F0053656C66746573742077696C30
:1019E0006C2062652072756E20746F2063616C6973
:1019F00062726174652061636375726174652073DE
:101A0000656E736F726C657373207265686F6D6954
:101A10006E672E005468657265206973207374695F
:101A20006C6C2061206E65656420746F206D616B45
:101A300065205A2063616C6962726174696F6E2EF1
:101A400020506C6561736520666F6C6C6F772074D5
:101A50006865206D616E75616C2C206368617074BF
:101A600065722046697273742073746570732C20DC
:101A700073656374696F6E2043616C69627261742F
:101A8000696F6E20666C6F772E005072696E746598
:101A90007220686173206E6F74206265656E2063CA
:101AA000616C69627261746564207965742E20507E
:101AB0006C6561736520666F6C6C6F772074686508
:101AC000206D616E75616C2C206368617074657245
:101AD0002046697273742073746570732C2073656B
:101AE0006374696F6E2043616C6962726174696FBF
:101AF0006E20666C6F772E004F6C64207365747473
:101B0000696E677320666F756E642E20446566612A
:101B1000756C74205049442C204573746570732093
:101B20006574632E2077696C6C2062652073657420
:101B30002E005761726E696E673A20626F7468207A
:101B40007072696E746572207479706520616E645C
:101B5000206D6F74686572626F6172642074797051
:101B600065206368616E6765642E005761726E69F7
:101B70006E673A207072696E746572207479706550
:101B8000206368616E6765642E005761726E696ECE
:101B9000673A206D6F74686572626F617264207459
:101BA000797065206368616E6765642E0058595AC4
:101BB0002063616C6962726174696F6E20616C6C24
:101BC0002072696768742E20536B65772077696C83
:101BD0006C20626520636F72726563746564206156
:101BE00075746F6D61746963616C6C792E005859FE
:101BF0005A2063616C6962726174696F6E20616CF6
:101C00006C2072696768742E20582F59206178659E
:101C1000732061726520736C696768746C792073D6
:101C20006B657765642E20476F6F64206A6F622151
:101C30000058595A2063616C6962726174696F6EF1
:101C4000206F6B2E20582F592061786573206172A8
:101C5000652070657270656E646963756C61722E63
:101C600020436F6E67726174756C6174696F6E7317
:101C7000210058595A2063616C6962726174696FFE
:101C80006E206661696C65642E20526967687420F5
:101C900066726F6E742063616C6962726174696FE1
:101CA0006E20706F696E74206E6F74207265616350
:101CB0006861626C652E0058595A2063616C6962D4
:101CC000726174696F6E206661696C65642E20466E
:101CD000726F6E742063616C6962726174696F6E99
:101CE00020706F696E7473206E6F7420726561630B
:101CF0006861626C652E0058595A2063616C696294
:101D0000726174696F6E206661696C65642E205023
:101D10006C6561736520636F6E73756C7420746895
:101D200065206D616E75616C2E0058595A20636193
:101D30006C6962726174696F6E20636F6D70726F2F
:101D40006D697365642E2052696768742066726FCE
:101D50006E742063616C6962726174696F6E207069
:101D60006F696E74206E6F74207265616368616262
:101D70006C652E0058595A2063616C6962726174F7
:101D8000696F6E20636F6D70726F6D697365642E1D
:101D90002046726F6E742063616C6962726174694F
:101DA0006F6E20706F696E7473206E6F7420726531
:101DB00061636861626C652E0058595A2063616CDA
:101DC0006962726174696F6E206661696C65642E08
:101DD000204265642063616C6962726174696F6E30
:101DE00020706F696E7420776173206E6F74206647
:101DF0006F756E642E00506C6561736520706C6148
:101E0000636520737465656C207368656574206F05
:101E10006E20686561746265642E00446973746144
:101E20006E6365206265747765656E2074697020E5
:101E30006F6620746865206E6F7A7A6C6520616EBB
:101E400064207468652062656420737572666163DE
:101E50006520686173206E6F74206265656E207303
:101E60006574207965742E20506C656173652066F9
:101E70006F6C6C6F7720746865206D616E75616C36
:101E80002C206368617074657220466972737420D7
:101E900073746570732C2073656374696F6E20466C
:101EA00069727374206C617965722063616C696218
:101EB000726174696F6E2E00506C616365206120E1
:101EC0007368656574206F66207061706572207537
:101ED0006E64657220746865206E6F7A7A6C652016
:101EE000647572696E67207468652063616C6962ED
:101EF000726174696F6E206F6620666972737420F8
:101F00003420706F696E74732E2049662074686582
:101F1000206E6F7A7A6C65206361746368657320E4
:101F20007468652070617065722C20706F776572BF
:101F3000206F666620746865207072696E746572C1
:101F400020696D6D6564696174656C792E00506CF3
:101F5000656173652072656D6F7665207374656564
:101F60006C2073686565742066726F6D20686561AA
:101F7000746265642E00497320737465656C207308
:101F800068656574206F6E20686561746265643F82
:101F900000206F66203400536561726368696E6764
:101FA000206265642063616C6962726174696F6E3E
:101FB00020706F696E7400206F662039004D656176
:101FC000737572696E67207265666572656E6365AA
:101FD00020686569676874206F662063616C696258
:101FE000726174696F6E20706F696E7400506C65F9
:101FF00061736520636C65616E20746865206E6F27
:102000007A7A6C6520666F722063616C69627261B6
:1020100074696F6E2E20436C69636B207768656E00
:1020200020646F6E652E004175746F20686F6D655A
:102030000078797A63616C5F6D6561737375726541
:102040005F656E7465720A0078797A63616C5F739C
:10205000706972616C382063783D25642063793D36
:102060002564207A303D256420647A3D2564207201
:1020700061646975733D25642061643D25640A00CF
:1020800078797A63616C5F7365617263685A206EF8
:102090006F207369676E616C0A20783D256C64203F
:1020A000793D256C64207A3D256C640A00204F4EF2
:1020B0002D5349474E414C20617420783D256420C2
:1020C000793D2564207A3D25642061643D25640ABC
:1020D0000078797A63616C5F7365617263685A2016
:1020E000783D256C6420793D256C64207A3D256C13
:1020F000640A000A00253032780078797A63616CCE
:102100005F7363616E5F706978656C735F3332789B
:1021100033322063783D25642063793D2564206D4A
:10212000696E5F7A3D2564206D61785F7A3D256434
:102130000A00202532642025640A000A0025303276
:102140007800206D696E3D2564206D61783D2564C1
:10215000206469663D25640A006D61785F633D25F2
:102160003264206D61785F6C3D25640A006D617892
:102170005F633D2564206D61785F723D2564206D4D
:1021800061785F6D617463683D25640A0020783D65
:10219000256420793D2564207A3D25640A0020705D
:1021A00061747465726E20666F756E642061742050
:1021B00025642025640A000000F000F801FC03FEFD
:1021C00007FE07FE07FE07FC03F801F0000000739E
:1021D000697A656F6628746F74616C293D25640A9D
:1021E0000073697A656F6628626C6F636B5F6275F6
:1021F00066666572293D25640A0078797A63616CA8
:102200005F6D656173737572655F6C656176650A94
:1022100000706F696E743D256420783D25642079D7
:102220003D2564207A3D25640A0058025802584D25
:10223000584DB004F055F055B00478797A63616C6C
:102240005F66696E645F6265645F696E647563741E
:10225000696F6E5F73656E736F725F706F696E74B6
:102260005F787920783D256C6420793D256C642069
:102270007A3D256C640A00203C20005741524E49AB
:102280004E473A2046726F6E7420706F696E7420EC
:102290006E6F7420726561636861626C652E20598F
:1022A00020636F6F7264696E6174653A00000000AC
:1022B00040410000C04000005C430000C0400000FE
:1022C0005C4300004643000040410000464349741F
:1022D00065726174696F6E3A200043616C69627265
:1022E0006174696F6E206661696C65642120436862
:1022F00065636B20746865206178657320616E6426
:102300002072756E20616761696E2E002220666101
:10231000696C65643A204275666665722066756C04
:102320006C21002200256920686F75727320256971
:10233000206D696E757465730054494D454F555451
:102340003A004D3131300046756C6C2052582042B5
:10235000756666657200437573746F6D00546578B9
:1023600074757200536D6F6F746800473120592582
:102370002D2E32662045252D2E33660047312058FC
:1023800025642059252D2E32662045252D2E3366B5
:1023900000656E717565696E67202200446F6E6519
:1023A000207072696E74696E672066696C65005092
:1023B00072696E7465722073746F707065642064E6
:1023C000756520746F206572726F72732E20466976
:1023D0007820746865206572726F7220616E642067
:1023E000757365204D39393920746F2072657374A7
:1023F0006172742E202854656D70657261747572F7
:10240000652069732072657365742E20536574208E
:102410006974206166746572207265737461727488
:10242000696E6729004E6F204C696E65204E756D90
:10243000626572207769746820636865636B737581
:102440006D2C204C617374204C696E653A20004EEF
:102450006F20436865636B73756D207769746820BE
:102460006C696E65206E756D6265722C204C6173AF
:1024700074204C696E653A2000636865636B737500
:102480006D206D69736D617463682C204C61737489
:10249000204C696E653A20004C696E65204E756D62
:1024A000626572206973206E6F74204C61737420B2
:1024B0004C696E65204E756D6265722B312C204C17
:1024C000617374204C696E653A200053544F50502C
:1024D00045442E20004D373031204534004D3730F3
:1024E00031204533004D373031204532004D3730F3
:1024F00031204531004D3730312045300046696C80
:10250000616D656E74206E72206F7574206F662029
:1025100072616E67652100206661696C65642E00DA
:10252000207375636365656465642E004D4D5520A9
:1025300063616E5F6C6F61643A00416464697469E1
:102540006F6E616C206C6F616420617474656D7076
:1025500074206E722E2025640A007732357832306E
:10256000636C5F63666D0A00773235783230636C76
:102570005F656E7465720A00506C656173652072E8
:10258000656D6F76652066696C616D656E7420613E
:102590006E64207468656E20707265737320746851
:1025A00065206B6E6F622E00456A656374696E67A5
:1025B0002066696C616D656E74004D4D55206C6FC1
:1025C0006164206661696C65642020202020002001
:1025D000746F6F206C6F6E672065787472757369A5
:1025E0006F6E2070726576656E7465640020636F2F
:1025F0006C6420657874727573696F6E2070726593
:1026000076656E74656400000E1315110E000000EF
:1026100004120912040000001C1F11111F00000009
:1026200006191803130C00040E1F041C00000004FC
:102630000A0A0A0A11110E001F1511151F000000C9
:102640000103161C0800000000110A04110A040C02
:1026500012120C000000002563252D31382E313870
:1026600053256300252E31305320002563252D315D
:10267000382E3138732563002563252D2E313653CE
:1026800020002563252E3135533A25732533640008
:10269000202020202020202020202020202020203A
:1026A00020202020002563252D31332E3133532562
:1026B000362E367300457872656D65207370616ED5
:1026C000206F6620746865205A2076616C7565738A
:1026D0002100426564206C6576656C696E672066D2
:1026E00061696C65642E2053656E736F7220646936
:1026F000646E7420747269676765722E2044656227
:10270000726973206F6E206E6F7A7A6C653F205706
:10271000616974696E6720666F7220726573657493
:102720002E005072656865617420746865206E6F54
:102730007A7A6C6521004552524F523A0046696CD4
:10274000616D656E7420657874727564696E67205A
:1027500026207769746820636F72726563742063E2
:102760006F6C6F723F004175746F6C6F6164696E5E
:10277000672066696C616D656E74206973206163A2
:10278000746976652C206A75737420707265737332
:1027900020746865206B6E6F6220616E6420696EC4
:1027A000736572742066696C616D656E742E2E2E71
:1027B00000546F74616C207072696E742074696D5E
:1027C0006500546F74616C2066696C616D656E7430
:1027D000005072696E742074696D650046696C61A1
:1027E0006D656E7420757365640052696768740066
:1027F0004C65667400592064697374616E6365206A
:1028000066726F6D206D696E005365766572652026
:10281000736B657700536C6967687420736B6577B9
:10282000004D6561737572656420736B6577005B3D
:10283000303B305D20706F696E74206F6666736523
:10284000740041646A757374696E67205A3A005265
:102850006573657400526561722073696465205BFD
:10286000756D5D0046726F6E7420736964655B758B
:102870006D5D00526967687420736964655B756D8E
:102880005D004C6566742073696465205B756D5DE1
:10289000005365742074656D70657261747572653E
:1028A0003A0054656D70657261747572652063617C
:1028B0006C6962726174696F6E206661696C6564CF
:1028C0000054656D70657261747572652063616C2A
:1028D0006962726174696F6E2069732066696E69DE
:1028E0007368656420616E64206163746976652E27
:1028F0002054656D702E2063616C69627261746929
:102900006F6E2063616E2062652064697361626C22
:10291000656420696E206D656E75205365747469F9
:102920006E67732D3E54656D702E2063616C2E00B2
:102930004E2F4100202030002020310049523A0023
:1029400046494E44413A0050494E44413A0053658D
:102950006E736F722073746174650025533A0A2593
:10296000382E32666D0A25533A0A25376C64642086
:102970003A253268686468203A2530326868646DA8
:102980000025533A0A25382E32666D0A25533A0A35
:102990002532646820253032646D2025303264731E
:1029A0000025362E32666D6D004E2F410025533ABC
:1029B0000A25530A25533A0A25533A004E2F41005F
:1029C00025342E3266010025533A0A25530A255331
:1029D0003A202025352E3266010A25533A2020253B
:1029E000352E32660100252D31322E313253252B02
:1029F000382E31660045787472756465723A006DE0
:102A00006D000059005800583A00593A005A3A00EF
:102A10002563252D31332E313353252B352E336647
:102A20000020003E003E0020003E003E0054656D48
:102A300070657261747572652063616C6962726140
:102A400074696F6E206661696C65642E20436F6ED9
:102A500074696E7565207769746820707265737328
:102A6000696E6720746865206B6E6F622E00546516
:102A70006D70657261747572652063616C696272F4
:102A80006174696F6E20646F6E652E20436F6E7483
:102A9000696E7565207769746820707265737369F3
:102AA0006E6720746865206B6E6F622E004C6F61DC
:102AB00064696E672066696C616D656E7400506C48
:102AC0006561736520696E7365727420504C412096
:102AD00066696C616D656E7420746F207468652022
:102AE00065787472756465722C207468656E2070E8
:102AF00072657373206B6E6F6220746F206C6F61F0
:102B0000642069742E00506C6561736520696E7372
:102B100065727420504C412066696C616D656E74FD
:102B200020746F20746865206669727374207475F0
:102B30006265206F66204D4D552C207468656E20AF
:102B4000707265737320746865206B6E6F62207499
:102B50006F206C6F61642069742E00596F7520635B
:102B6000616E20616C7761797320726573756D6534
:102B7000207468652057697A6172642066726F6D8F
:102B80002043616C6962726174696F6E202D3E2012
:102B900057697A6172642E00506C656173652063B9
:102BA0006865636B206F75722068616E64626F6F19
:102BB0006B20616E6420666978207468652070728D
:102BC0006F626C656D2E205468656E20726573753A
:102BD0006D65207468652057697A61726420627936
:102BE000207265626F6F74696E672074686520700B
:102BF00072696E7465722E00416C6C20697320647A
:102C00006F6E652E204861707079207072696E74E5
:102C1000696E672100506C6561736520636C656146
:102C20006E206865617462656420616E64207468FA
:102C3000656E20707265737320746865206B6E6FAB
:102C4000622E00446F20796F752077616E74207456
:102C50006F20726570656174206C61737420737489
:102C6000657020746F20726561646A757374206486
:102C7000697374616E6365206265747765656E2043
:102C80006E6F7A7A6C6520616E642068656174622B
:102C900065643F00492077696C6C207374617274BD
:102CA00020746F207072696E74206C696E6520618B
:102CB0006E6420796F752077696C6C20677261642F
:102CC00075616C6C79206C6F776572207468652013
:102CD0006E6F7A7A6C6520627920726F74617469A4
:102CE0006E6720746865206B6E6F622C20756E7441
:102CF000696C20796F75207265616368206F7074EC
:102D0000696D616C206865696768742E2043686529
:102D1000636B2074686520706963747572657320D5
:102D2000696E206F75722068616E64626F6F6B20D0
:102D3000696E20636861707465722043616C6962BA
:102D4000726174696F6E2E004E6F7720492077692B
:102D50006C6C2063616C6962726174652064697374
:102D600074616E6365206265747765656E20746951
:102D700070206F6620746865206E6F7A7A6C6520AB
:102D8000616E642068656174626564207375726643
:102D90006163652E00497320697420504C412066A0
:102DA000696C616D656E743F0053656C656374207A
:102DB0006E6F7A7A6C6520707265686561742074D4
:102DC000656D706572617475726520776869636896
:102DD000206D61746368657320796F7572206D6111
:102DE00074657269616C2E004E6F77204920776997
:102DF0006C6C2070726568656174206E6F7A7A6C95
:102E00006520666F7220504C412E00497320666920
:102E10006C616D656E74206C6F616465643F004920
:102E2000732066696C616D656E742031206C6F6112
:102E30006465643F004E6F7720492077696C6C2091
:102E400070726568656174206E6F7A7A6C65206651
:102E50006F7220504C412E00492077696C6C2072B3
:102E6000756E207A2063616C6962726174696F6E3D
:102E7000206E6F772E004E6F772072656D6F7665CE
:102E8000207468652074657374207072696E742094
:102E900066726F6D20737465656C20736865657408
:102EA0002E00506C656173652072656D6F766520CC
:102EB0007368697070696E672068656C706572739D
:102EC0002066697273742E00492077696C6C2072D9
:102ED000756E2078797A2063616C696272617469B9
:102EE0006F6E206E6F772E2049742077696C6C208E
:102EF00074616B6520617070726F782E20313220A2
:102F00006D696E732E0046697273742C20492077A8
:102F1000696C6C2072756E207468652073656C66D0
:102F20007465737420746F20636865636B206D6FC4
:102F3000737420636F6D6D6F6E20617373656D6266
:102F40006C792070726F626C656D732E0048692C0D
:102F5000204920616D20796F7572204F7269676911
:102F60006E616C205061796E65205226442070722B
:102F7000696E7465722E20576F756C6420796F7559
:102F8000206C696B65206D6520746F2067756964BE
:102F90006520796F75207468726F75676820746832
:102FA000652073657475702070726F636573733F0D
:102FB00000452D636F72726563743A005A2D636F1A
:102FC00072726563743A00592D636F72726563742F
:102FD0003A00582D636F72726563743A0053706FD4
:102FE0006F6C4A6F696E2020205B4E2F415D00534D
:102FF000706F6F6C4A6F696E2020205B6F66665D34
:103000000053706F6F6C4A6F696E202020205B6FD9
:103010006E5D004669726D776172652020205B6E7F
:103020006F6E655D004669726D77617265205B73D6
:1030300074726963745D004669726D7761726520B0
:1030400020205B7761726E5D004669726D776172F8
:10305000652020205B6E6F6E655D004D6F64656C52
:103060002020202020205B6E6F6E655D004D6F6418
:10307000656C202020205B7374726963745D004D61
:103080006F64656C2020202020205B7761726E5D6C
:10309000004D6F64656C2020202020205B6E6F6ED9
:1030A000655D004E6F7A7A6C6520202020205B6E73
:1030B0006F6E655D004E6F7A7A6C652020205B73C1
:1030C00074726963745D004E6F7A7A6C652020209B
:1030D00020205B7761726E5D004E6F7A7A6C65209E
:1030E000202020205B6E6F6E655D00485720536581
:1030F0007475700048572053657475700043686597
:10310000636B73004E6F7A7A6C6520642E20205BAF
:10311000302E34305D004E6F7A7A6C6520642E203C
:10312000205B302E36305D004E6F7A7A6C652064FD
:103130002E20205B302E34305D004E6F7A7A6C6525
:1031400020642E20205B302E32355D00537465657F
:103150006C2073686565747300536F756E6420200E
:10316000202020205B6C6F75645D00536F756E646A
:10317000202020205B6173736973745D00536F7549
:103180006E64202020205B73696C656E745D005353
:103190006F756E642020202020205B6F6E63655D5C
:1031A00000536F756E642020202020205B6C6F75AB
:1031B000645D00536F7274202020202020205B6EFD
:1031C0006F6E655D00536F72742020205B616C70C0
:1031D00068616265745D00536F7274202020202046
:1031E00020205B74696D655D0053442063617264E7
:1031F00020205B6E6F726D616C5D005344206361D3
:103200007264205B666C73684169725D005250693C
:1032100020706F727420202020205B6F6E5D005242
:10322000506920706F7274202020205B6F66665D8D
:103230000054656D702E2063616C2E2020205B6F22
:103240006E5D0054656D702E2063616C2E20205BD6
:103250006F66665D004C696E2E20636F72726563E7
:1032600074696F6E004D65736820626564206C65DB
:1032700076656C696E67004D4D55204D6F64655BDA
:10328000537465616C74685D004D4D55204D6F64DD
:1032900065205B4E6F726D616C5D00485720536511
:1032A0007475700046616E7320636865636B2020DF
:1032B0005B6F66665D0046616E7320636865636B75
:1032C0002020205B6F6E5D00462E206175746F6C50
:1032D0006F6164205B6F66665D00462E20617574C9
:1032E0006F6C6F616420205B6F6E5D00462E206105
:1032F00075746F6C6F6164205B4E2F415D00446993
:103300007361626C65207374657070657273004DD3
:103310006F766520617869730054656D70657261C0
:10332000747572650054656D702E2063616C6962FE
:10333000726174696F6E0052657365742058595AD2
:103340002063616C6962722E005049442063616C95
:103350006962726174696F6E00426564206C6576A3
:10336000656C20636F7272656374004D65736820CD
:10337000426564204C6576656C696E670043616CDC
:10338000696272617465205A0043616C696272619E
:1033900074652058595A0053656C667465737420BF
:1033A00020202020202020200057697A61726400AC
:1033B0004C6F616420616C6C0057697A61726420A3
:1033C000656E642073746174653A2025640A005741
:1033D000697A6172642073746174653A2025640AA5
:1033E0000044697361626C65206661726D206D6F67
:1033F0006465004661726D206E756D626572004D88
:103400003834004D343400473238205700473939BA
:103410000044697361626C65206661726D206D6F36
:1034200064653F0090137D00B0157800F0177300BD
:10343000601A6E00F01C6900A01F640050225F003B
:1034400020255A00E0275500902A5000202D4B00DF
:10345000A02F4600F031410010343C00F035370019
:10346000A037320020392D00603A2800703B23003D
:10347000603C1E00203D1900C03D1400403E0F007E
:10348000A03E0A00F03E0500403F0000703FFBFFF9
:10349000903FF6FFB03FF1FFC03FECFFD03FE7FFAA
:1034A000E03FE2FFF03FDDFFF03FD8FF20484F5400
:1034B000454E4420544845524D414C2052554E41B2
:1034C00057415900204845415442454420544845FD
:1034D000524D414C2052554E415741590054484598
:1034E000524D414C2052554E41574159004245449E
:1034F00020544845524D414C2052554E4157415958
:103500000020544845524D414C2052554E415741A0
:10351000592028205052454845415420484F544591
:103520004E44290020544845524D414C2052554E9E
:103530004157415920282050524548454154204880
:103540004541544245442900505245484541542084
:103550004552524F52004245442050524548454141
:1035600054204552524F52004D494E54454D502023
:10357000666978656400506C656173652072657377
:1035800074617274004572723A204D494E54454D33
:1035900050003A20457874727564657220737769BB
:1035A0007463686564206F66662E204D494E5445ED
:1035B0004D5020747269676765726564202100450B
:1035C00072723A204D494E54454D502042454400B8
:1035D00054656D706572617475726520686561749B
:1035E000656420626564207377697463686564202C
:1035F0006F66662E204D494E54454D5020747269B9
:10360000676765726564202100746D633231333001
:103610005F686F6D655F656E74657228617865734C
:103620005F6D61736B3D307825303278290A007404
:103630006D63323133305F686F6D655F65786974D3
:1036400020746D63323133305F73675F686F6D690B
:103650006E675F617865735F6D61736B3D30782570
:103660003032780A00544D43204452495645522086
:103670004F56455254454D500045787472756465F7
:1036800072004D6F7665205A004D6F7665205900A7
:103690004D6F7665205800437261736820646574CD
:1036A000656374696F6E2063616E0A62652074756C
:1036B000726E6564206F6E206F6E6C7920696E0A81
:1036C0004E6F726D616C206D6F6465005741524E94
:1036D000494E473A0A4372617368206465746563B2
:1036E00074696F6E0A64697361626C656420696EE7
:1036F0000A537465616C7468206D6F646500417570
:10370000746F6C6F6164696E672066696C616D656A
:103710006E7420617661696C61626C65206F6E6C9D
:1037200079207768656E2066696C616D656E7420BE
:1037300073656E736F72206973207475726E656441
:10374000206F6E2E2E2E004552524F523A2046695F
:103750006C616D656E742073656E736F7220697332
:10376000206E6F7420726573706F6E64696E672C63
:1037700020706C6561736520636865636B20636F9F
:103780006E6E656374696F6E2E004D6F64652063A5
:1037900068616E676520696E2070726F677265730D
:1037A00073202E2E2E0043616C6962726174650075
:1037B000506C65617365206C6F616420504C4120D2
:1037C00066696C616D656E742066697273742E0033
:1037D000497320504C412066696C616D656E7420A0
:1037E0006C6F616465643F0043616E63656C0046A5
:1037F000696C616D656E740053656C65637420500F
:103800004C412066696C616D656E743A0052756E4C
:103810006E696E672057697A6172642077696C6C93
:103820002064656C6574652063757272656E7420C2
:1038300063616C6962726174696F6E207265737521
:103840006C747320616E642073746172742066728C
:103850006F6D2074686520626567696E6E696E675A
:103860002E20436F6E74696E75653F0050726568F7
:10387000656174696E67206E6F7A7A6C652E205070
:103880006C6561736520776169742E00456A6563B4
:103890007400556E6C6F61640055736520756E6CB5
:1038A0006F616420746F2072656D6F766520666944
:1038B0006C616D656E7420312069662069742070BA
:1038C000726F747275646573206F75747369646563
:1038D000206F66207468652072656172204D4D55B9
:1038E00020747562652E2055736520656A65637462
:1038F0002069662069742069732068696464656E54
:1039000020696E20747562652E00473830004D3492
:1039100035004D3435205A004737360046696C6112
:103920006D656E742073656E736F72005072696E90
:10393000742066616E3A0045787472756465722011
:1039400066616E3A0043616C6962726174696E67A8
:1039500020686F6D650053656C66746573742066CE
:1039600061696C6564202000416C6C20636F727229
:1039700065637420202020202000436865636B6904
:103980006E672073656E736F7273200043686563A2
:103990006B696E6720686F74656E642020004368F1
:1039A00065636B696E6720626564202020202000BB
:1039B000436865636B696E67205A2061786973207C
:1039C0002000436865636B696E67205920617869E0
:1039D00073202000436865636B696E67205820611F
:1039E000786973202000436865636B696E672065A2
:1039F0006E6473746F7073004572726F72202D2045
:103A0000737461746963206D656D6F72792068618C
:103A100073206265656E206F766572777269747463
:103A2000656E00436172642072656D6F7665640037
:103A30005072696E746572206E6F7A7A6C6520645C
:103A400069616D657465722064696666657273206C
:103A500066726F6D2074686520472D636F64652EF4
:103A600020506C6561736520636865636B207468C2
:103A7000652076616C756520696E20736574746964
:103A80006E67732E205072696E742063616E636579
:103A90006C6C65642E005072696E746572206E6F76
:103AA0007A7A6C65206469616D65746572206469F9
:103AB00066666572732066726F6D20746865204754
:103AC0002D636F64652E20436F6E74696E75653F5C
:103AD000002D2D2D2D2D2D2D2D2D2D2D2D2D2D2D43
:103AE0002D2D2D2D2D000000000000110A04505234
:103AF00055534133444657002079303D25640A0030
:103B00002078303D25640A004F4B0A004552524F41
:103B1000522061643D25640A002020207A303D2532
:103B2000640A00207A303D25640A002079303D2562
:103B3000640A002078303D25640A0078797A636150
:103B40006C5F66696E645F706F696E745F63656EEB
:103B5000746572320A0000002100240027002A0048
:103B60002D003000330001010000040107010A01AB
:103B700000002200250028002B002E003100340018
:103B800002010000050108010B01000020002300D4
:103B9000260029002C002F00320000010000030144
:103BA00006010901050505050705080808080202C0
:103BB00002020A0A080804040404010101010101C7
:103BC00001010303030303030303040707070C0CAA
:103BD0000C0C0C0C0C0C0202020206060606060671
:103BE00006060B0B0B0B0B0B0B0B07070A0A0A0A3B
:103BF0000A0A05050504040408080102102020082B
:103C00000810204010204080020102010804020137
:103C100001020408102040808040201008040201A6
:103C200080040201804020100804020108040201FF
:103C30000102040810204080010204081020408086
:103C400010080408801020400440801020400480A8
:103C500000000A0B02090C0D0E0807030401000006
:103C60000000000000000000000000000000000054
:103C70000000000000000000000000001211100011
:103C80000000000000000000000000000000000034
:103C90000000000000000000000000000000000024
:103CA0000000000000004731205A252D302E3366D9
:103CB0002046252D302E33660047312045252D30F6
:103CC0002E3366204632373030004D3833006F6B6C
:103CD0000A0000002110422063308440A550C660D5
:103CE000E770088129914AA16BB18CC1ADD1CEE1B9
:103CF000EFF13112100273325222B5529442F77230
:103D0000D662399318837BB35AA3BDD39CC3FFF308
:103D1000DEE36224433420040114E664C774A4443F
:103D200085546AA54BB528850995EEE5CFF5ACC558
:103D30008DD55336722611163006D776F66695560F
:103D4000B4465BB77AA719973887DFF7FEE79DD7A8
:103D5000BCC7C448E5588668A7784008611802289F
:103D60002338CCC9EDD98EE9AFF9488969990AA9F8
:103D70002BB9F55AD44AB77A966A711A500A333A6F
:103D8000122AFDDBDCCBBFFB9EEB799B588B3BBB48
:103D90001AABA66C877CE44CC55C222C033C600CFF
:103DA000411CAEED8FFDECCDCDDD2AAD0BBD688D98
:103DB000499D977EB66ED55EF44E133E322E511E4F
:103DC000700E9FFFBEEFDDDFFCCF1BBF3AAF599FE8
:103DD000788F8891A981CAB1EBA10CD12DC14EF188
:103DE0006FE18010A100C230E320045025404670EE
:103DF0006760B9839893FBA3DAB33DC31CD37FE319
:103E00005EF3B1029012F322D2323542145277623D
:103E10005672EAB5CBA5A89589856EF54FE52CD5E8
:103E20000DC5E234C324A01481046674476424548D
:103E30000544DBA7FAB79987B8975FE77EF71DC7F8
:103E40003CD7D326F2369106B016576676761546DD
:103E500034564CD96DC90EF92FE9C899E9898AB948
:103E6000ABA94458654806782768C018E10882382D
:103E7000A3287DCB5CDB3FEB1EFBF98BD89BBBAB58
:103E80009ABB754A545A376A167AF10AD01AB32A7D
:103E9000923A2EFD0FED6CDD4DCDAABD8BADE89DA8
:103EA000C98D267C076C645C454CA23C832CE01CCD
:103EB000C10C1FEF3EFF5DCF7CDF9BAFBABFD98F38
:103EC000F89F176E367E554E745E932EB23ED10E1D
:103ED000F01E7C3C3E3F2F2A225C0046696E6973CF
:103EE00068696E67206D6F76656D656E74730053DB
:103EF0006F756E642020202020205B6C6F75645DE0
:103F000000536F756E64202020205B6173736973AA
:103F1000745D00536F756E64202020205B73696CA4
:103F2000656E745D00536F756E6420202020202024
:103F30005B6F6E63655D00536F756E64202020209B
:103F400020205B6C6F75645D004D4D55204D6F6496
:103F5000655B537465616C74685D004D4D55204D13
:103F60006F6465205B4E6F726D616C5D00437261C2
:103F70007368206465742E20205B4E2F415D0043E2
:103F800072617368206465742E20205B6F66665DC5
:103F9000004372617368206465742E2020205B6F7B
:103FA0006E5D004D6F6465202020205B5374656159
:103FB0006C74685D004D6F646520202020205B4E8E
:103FC0006F726D616C5D0046616E7320636865633E
:103FD0006B20205B6F66665D0046616E73206368D0
:103FE00065636B2020205B6F6E5D0046696C2E2040
:103FF00073656E736F7220205B6F6E5D0046696C37
:104000002E2073656E736F72205B6F66665D004372
:1040100068616E67652066696C616D656E740046E7
:104020006C6F77005370656564004D61676E6574F1
:104030007320636F6D702E5B4E2F415D004D616785
:104040006E65747320636F6D702E5B4F66665D00E6
:104050004D61676E65747320636F6D702E205B4FCA
:104060006E5D005A2D70726F6265206E722E202078
:1040700020205B335D005A2D70726F6265206E7276
:104080002E202020205B355D005A2D70726F6265F6
:10409000206E722E202020205B315D004D657368FC
:1040A0002020202020202020205B3778375D004D05
:1040B0006573682020202020202020205B33783367
:1040C0005D0046616E207370656564004265640042
:1040D0004E6F7A7A6C650053657474696E6773000D
:1040E0005072696E742061626F7274656400596504
:1040F00073004E6F0053746F70207072696E74009D
:1041000046696C6520696E636F6D706C6574652EB1
:1041100020436F6E74696E756520616E7977617981
:104120003F004261636B004D61696E004D36303077
:10413000002F2F20616374696F6E3A63616E63654F
:104140006C004D3234004D323320257300052E2E85
:10415000006F6B0A0073746172740A004D4D553222
:10416000206669726D776172652076657273696F1A
:104170006E20696E76616C69642E20526571756976
:104180007265642076657273696F6E3A2062756934
:104190006C64206E756D626572202564206F7220DC
:1041A0006869676865722E006673656E736F725F0B
:1041B00073746F705F616E645F736176655F707258
:1041C000696E740A004D4D55203D3E20276F6B27C8
:1041D0000A004D4D55203D3E20276F6B270A0025D4
:1041E00064004D4D55203D3E20276F6B272C2072DB
:1041F0006573756D65207072696E740A004D4D555A
:1042000020726574727920617474656D7074206EAB
:10421000722E2025640A004D4D55203D3E20276F0B
:104220006B270A00410A004D4D55203C3D20274197
:10423000270A004D363030004D363030204155547D
:104240004F005052555341206673656E736F725F15
:104250007265636F766572002568687500410A00B3
:104260004D4D55203C3D202741270A0050300A0083
:104270004D25640A004D4D55203C3D20274D2564B9
:10428000270A0057300A004D4D55203C3D20275746
:1042900030270A0053330A004D4D55203C3D20275E
:1042A0005333270A0052300A004D4D55203C3D2023
:1042B000275230270A004B25640A004D4D55203CFB
:1042C0003D20274B2564270A004525640A004D4DF3
:1042D00055203C3D2027452564270A0055300A001B
:1042E0004D4D55203C3D20275530270A0043300ACC
:1042F000004D4D55203C3D20274330270A004C25DA
:10430000640A004D4D55203C3D20274C2564270A6A
:10431000005425640A004D4D55203C3D202754256E
:1043200064270A004D4D55202D20454E41424C45F5
:104330004400256868750050300A004D310A004D70
:104340004D55203C3D20274D31270050300A004D6F
:104350004D552076657273696F6E2076616C696465
:10436000004D4D55203D3E202725646F6B270A00E8
:1043700025750053320A004D4D55203C3D202753F2
:104380003227004D4D55203D3E202725646F6B2779
:104390000A002575004D4D55206E6F7420726573AF
:1043A000706F6E64696E67202D2044495341424C02
:1043B00045440053310A004D4D55203C3D202753C4
:1043C0003127004D4D55203D3E2027737461727496
:1043D00027006572726F723A20756E6B6E6F776E22
:1043E000206D6F76650A006E6F206D6F76650A002E
:1043F000542D636F64650A00756E6C6F61640A000A
:104400006C6F61640A006D6D755F6765745F7265DE
:1044100073706F6E7365202D20626567696E206D05
:104420006F76653A20006D6D755F6765745F7265C4
:1044300073706F6E736528292072657475726E696A
:104440006E673A2025640A00556E6C6F6164696E70
:10445000672066696E697368656420320A00556E6C
:104460006C6F616420320A00556E6C6F6164696E16
:10447000672066696E697368656420310A00556E4D
:104480006C6F616420310A004D4D55207374617268
:10449000747320726573706F6E64696E670A004D85
:1044A0004D55206E6F7420726573706F6E64696E07
:1044B000670A0046696C616D656E74206F757420C3
:1044C0006F662072616E6765202564200A00000017
:1044D000803F555585410000803F0000C8410000E5
:1044E0000040555505420000C03F00004842000012
:1044F000204055558542000070C1ABAAA64200007D
:1045000060C10000A0410000C0C0000020410000C8
:104510002041ABAA3A41000020C15555D5400000CA
:1045200048C255550542506C6561736520757064CD
:10453000617465206669726D7761726520696E20AD
:10454000796F7572204D4D55322E2057616974690F
:104550006E6720666F722072657365742E004D4D14
:1045600055204F4B2E20526573756D696E672E2E48
:104570002E004D4D55204F4B2E20526573756D69A1
:104580006E6720706F736974696F6E2E2E2E004DEA
:104590004D55204F4B2E20526573756D696E672007
:1045A00074656D70657261747572652E2E2E00468D
:1045B00069782074686520697373756520616E641D
:1045C000207468656E2070726573732062757474F0
:1045D0006F6E206F6E204D4D5520756E69742E00E4
:1045E000507265737320746865206B6E6F622074FF
:1045F0006F20726573756D65206E6F7A7A6C6520B9
:1046000074656D70657261747572652E004D4D55DF
:10461000206E6565647320757365722061747465BE
:104620006E74696F6E2E0025632533642F25642513
:104630006300726573756C742076616C75653A20E1
:1046400025640A0020693D25326420636E743D258F
:1046500032642076616C3D2532640A00636C7573A8
:10466000746572733A0A0020693D253264207374C0
:1046700065703D2532640A00736F7274656420733F
:10468000616D706C65733A0A003A2000202020208A
:10469000202020202020202020202020202020003A
:1046A000203A200020202020202020202020202010
:1046B000202020202020202000202020202020201A
:1046C0002020202020200025730025632533642F1F
:1046D00025642563005A25362E326620005A202094
:1046E000202D2D2D200025632533642525002D2D1B
:1046F0002D00253368686400253353253373252541
:1047000000555342002020200020534400202575EE
:104710003E257500203F3E2575002046257500206A
:10472000463F0020463020200025632D2D3A2D2DB8
:104730002020002563253375682025632563002527
:1047400063253032753A2530327525632563005074
:10475000494E44412048656174696E670054656D37
:10476000702E2063616C2E2020202020202020200D
:10477000200043616C6962726174696F6E20646FBE
:104780006E650043616C6962726174696E67205A7C
:104790000042656420646F6E650042656420486570
:1047A0006174696E670048656174696E6720646F43
:1047B0006E652E0048656174696E670024F4D4301C
:1047C00050C38E20C2A24017828B7011127A910DB5
:1047D000816CD90AA861E108C75866076151430690
:1047E0001E4B5D05C145A7041A411104093D9803FC
:1047F000713931034036DB0265339102D430540203
:10480000802E1D02632CEE01752AC501B028A0017F
:10481000102781018F2564012B244B01E0223401F4
:10482000AC211F018D200D01801FFC00841EED00B6
:10483000971DDF00B81CD200E61BC600201BBC0081
:10484000641AB200B219A8000A19A0006A189900E7
:10485000D117910040178B00B516840031167E00E9
:10486000B31579003A157300C7146F0058146A0025
:10487000EE1366008813630025135E00C7125B0009
:104880006C12570015125400C111510070114F00E5
:1048900021114B00D61049008D10470046104400EE
:1048A00002104200C00F4000800F3E00420F3C004B
:1048B000060F3B00CB0E3800930E37005C0E350020
:1048C000270E3400F30D3200C10D3100900D300081
:1048D000600D2E00320D2D00050D2C00D90C2B0083
:1048E000AE0C2900850C29005C0C2700350C270034
:1048F0000E0C2600E80B2400C40B2400A00B2300A0
:104900007D0B23005A0B2100390B2100180B2000CE
:10491000F80A1F00D90A1E00BB0A1E009D0A1D00CE
:10492000800A1D00630A1C00470A1B002C0A1B009A
:10493000110A1A00F7091A00DD091900C409190043
:10494000AB091900920917007B09180063091700C9
:104950004C09160036091600200916000A09150030
:10496000F5081500E0081400CC081400B80814007D
:10497000A4081400900813007D0812006B081300AF
:1049800058081200460812003408110023081100CC
:104990001208110001081100F0071000E0071000D4
:1049A000D0071000C0071000B0070F00A1071000CB
:1049B00091070E0083070F0074070F0065070E00B4
:1049C00057070E0049070E003B070D002E070E008B
:1049D00020070D0013070D0006070D00F9060C0057
:1049E000ED060D00E0060C00D4060C00C8060C0015
:1049F000BC060C00B0060C00A4060B0099060C00C7
:104A00008D060B0082060B0077060B006C060B0070
:104A100061060A0057060B004C060A0042060A000F
:104A200038060A002E060A0024060A001A060A00A2
:104A30001006090007060A00FD050900F405090033
:104A4000EB050900E2050900D9050900D0050900B8
:104A5000C7050900BE050900B5050800AD05080039
:104A6000A50509009C050800940508008C050800B0
:104A7000840508007C050800740508006C05070023
:104A8000650508005D050700560508004E0507008E
:104A900047050700400508003805070031050700F5
:104AA0002A050700230507001C0506001605070058
:104AB0000F0507000805060002050700FB040600B5
:104AC000F5040700EE040600E8040600E20407000F
:104AD000DB040600D5040600CF040600C904060066
:104AE000C3040600BD040600B7040600B1040500B7
:104AF000AC040600A6040600A00405009B04060002
:104B000095040500900406008A040500850405004C
:104B1000800406007A040500750405007004050091
:104B20006B04050066040500610405005C040500D3
:104B300057040500520405004D0405004804050013
:104B4000430405003E0404003A0405003504050052
:104B5000300404002C04050027040400230405008D
:104B60001E0404001A0404001604050011040400C5
:104B70000D040400090405000404040000040400FA
:104B8000FC030400F8030400F4030400F003040031
:104B9000EC030400E8030400E4030400E003040061
:104BA000DC030400D8030400D4030400D003040091
:104BB000CC030400C8030300C503030024F404D994
:104BC000201BC40C5C0E9804C4095F0265077101C8
:104BD000F405F900FB04B30048048700C103690031
:104BE0005803550003034500BE023A008402310019
:104BF00053022A002902250004022000E4011C00BF
:104C0000C8011900AF0117009801140084011300B6
:104C1000710110006101100051010E0043010D00EF
:104C200036010B002B010B0020010B0015010900C0
:104C30000C01090003010800FB000800F300080054
:104C4000EB000700E4000600DE000600D8000600C6
:104C5000D2000600CC000500C7000500C200050018
:104C6000BD000400B9000400B5000400B100040058
:104C7000AD000400A9000400A5000300A200030089
:104C80009F0004009B0003009800030095000200B1
:104C900093000300900003008D0002008B000300CE
:104CA00088000200860002008400030081000200E8
:104CB0007F0002007D0002007B00020079000200FC
:104CC000770001007600020074000200720001000B
:104CD000710002006F0002006D0001006C00020014
:104CE0006A0001006900020067000100660001001F
:104CF0006500010064000200620001006100010023
:104D0000600001005F0002005D0001005C00010026
:104D10005B0001005A000100590001005800010029
:104D20005700010056000100550001005400010029
:104D30005300000053000100520001005100010027
:104D4000500001004F0001004E0000004E00010025
:104D50004D0001004C0001004B0000004B00010021
:104D60004A0001004900010048000000480001001D
:104D70004700010046000000460001004500000019
:104D80004500010044000100430000004300010011
:104D9000420000004200010041000000410001000B
:104DA000400001003F0000003F0001003E00000005
:104DB0003E0001003D0000003D0001003C000000FD
:104DC0003C0000003C0001003B0000003B000100F3
:104DD0003A0000003A0001003900000039000100EB
:104DE00038000000380000003800010037000000E3
:104DF00037000100360000003600000036000100D8
:104E000035000000350000003500010034000000CE
:104E100034000000340001003300000033000000C3
:104E200033000100320000003200000032000100B7
:104E300031000000310000003100010030000000AE
:104E400030000000300001002F0000002F000000A3
:104E50002F0000002F0001002E0000002E00000097
:104E60002E0001002D0000002D0000002D0000008C
:104E70002D0001002C0000002C0000002C00000080
:104E80002C0001002B0000002B0000002B00000074
:104E90002B0001002A0000002A0000002A00000068
:104EA0002A0001002900000029000000290000005C
:104EB000290000002900010028000000280000004F
:104EC0002800000028000000280001002700000042
:104ED0002700000027000000270000002700010035
:104EE000260000002600000026000000260000002A
:104EF000260001002500000025000000250000001C
:104F0000250000002500000025000100240000000D
:104F10002400000024000000240000002400010000
:104F200023000000230000002300000023000000F5
:104F300023000000230000002300010022000000E5
:104F400022000000220000002200000022000000D9
:104F500022000100210000002100000021000000CB
:104F600021000000210000002100000021000100BC
:104F700020000000200000002000000020000000B1
:104F800020000000200000002000000020000100A0
:104F90001F0000001F0000001F0000001F00000095
:104FA0001F0000001F0000001F0001001E00000085
:104FB0001E0000001E0000001E0000005761697402
:104FC000696E6720666F72206E6F7A7A6C652061F9
:104FD0006E642062656420636F6F6C696E67005356
:104FE000656C662074657374204F4B0053656C6666
:104FF000207465737420737461727420200046619C
:105000006C73652074726967676572696E670053B7
:105010007761707065640046726F6E742F6C6566A0
:10502000742066616E73004178697300417869731A
:10503000206C656E677468004C6F6F7365207075C7
:105040006C6C657900456E6473746F70206E6F745C
:105050002068697400456E6473746F70004D6F74DE
:105060006F7200456E6473746F7073005769726974
:105070006E67206572726F7200426564202F20484F
:105080006561746572004E6F7420636F6E6E656348
:10509000746564004865617465722F546865726D4B
:1050A0006973746F7200506C656173652063686525
:1050B000636B203A0053656C667465737420657287
:1050C000726F72202100457874722066616E2073C1
:1050D000706565643A202564200A005072696E7418
:1050E0002066616E2073706565643A202564200A2D
:1050F000005465737420323A0A0045787472206651
:10510000616E2073706565643A202564200A005042
:1051100072696E742066616E2073706565643A20F2
:105120002564200A005465737420313A0A006C63C8
:10513000645F73656C66636865636B5F61786973F0
:105140002025642C2025640A004D38340047312086
:105150005A31352046313030300047323820570040
:1051600025632041584953205347313D25640A00A7
:1051700041786973206C656E67746820646966663F
:105180006572656E63653A252E33660A004D65616A
:1051900073757265642061786973206C656E6774DD
:1051A000683A252E33660A0020573A0020453A0017
:1051B000543A005A206C6976652061646A7573748C
:1051C000206F7574206F662072616E67652E2053A4
:1051D000657474696E6720746F20302E20436C698B
:1051E000636B20746F20636F6E74696E75652E003B
:1051F0005A206C6976652061646A757374206F75D6
:1052000074206F662072616E67652E20536574741A
:10521000696E6720746F20300020423A0020453AC2
:1052200000543A00494E5434007265636F766572DB
:105230005F6D616368696E655F73746174655F61FA
:10524000667465725F706F7765725F70616E6963B7
:105250002C20696E697469616C20007265636F76D9
:1052600065725F6D616368696E655F7374617465B3
:105270005F61667465725F706F7765725F70616E93
:1052800069632C20696E697469616C20004739324A
:1052900020450050525553412075766C6F004734BD
:1052A000205330004D32362053256C75004D31307F
:1052B000362053004D3832004731204625640047E0
:1052C000312045322A64656661756C745F7265745D
:1052D00072616374696F6E20463438300047312044
:1052E0005A002046323030300020590047312058D3
:1052F000004D383300506F736974696F6E207265AA
:1053000061642066726F6D20656570726F6D3A0022
:105310004D3233202573002E67636F004665656448
:10532000726174653A00473120452D646566617588
:105330006C745F72657472616374696F6E20463459
:1053400038300047312045352046313230004D3865
:1053500033004D31393020532564004D3130392030
:105360005325640047323820582059004731205ACD
:10537000323520463830300055564C4F202D2065B0
:105380006E642025640A007374707325640A0077C4
:105390006F726C6420636F6F7264696E61746573A1
:1053A0003A2028252E33662C20252E33662C2025E6
:1053B0002E3366290A00706879736963616C206313
:1053C0006F6F7264696E617465733A2028252E339D
:1053D000662C20252E33662C20252E3366290A00C4
:1053E00043757272656E7420706F73205A5F4158F6
:1053F00049533A252E33660A43757272656E7420DE
:10540000706F7320455F415849533A252E33660A21
:105410000041667465722077616974696E67206601
:105420006F722074656D703A0A43757272656E749E
:1054300020706F7320585F415849533A252E3366C8
:105440000A43757272656E7420706F7320595F41E4
:105450005849533A252E33660A005265636F7665C4
:1054600072696E67207072696E7420202020002F90
:105470002F20616374696F6E3A70617573650025E2
:10548000533A202534642052504D0A25533A2020A7
:105490002534642052504D0A005072696E742046C3
:1054A000414E004E6F7A7A6C652046414E00546F33
:1054B00074616C004C617374207072696E74004D7D
:1054C0004D55206C6F6164206661696C73004D4DB1
:1054D00055206661696C73004C6173742070726949
:1054E0006E74206661696C75726573004D4D552050
:1054F000706F776572206661696C73004D4D552041
:105500006C6F6164206661696C73004D4D55206657
:1055100061696C7300546F74616C206661696C75AD
:105520007265730043726173680046696C616D2E29
:105530002072756E6F75747300506F776572206698
:1055400061696C7572657300546F74616C2066617B
:10555000696C757265730043726173680046696CAB
:10556000616D2E2072756E6F75747300506F776564
:1055700072206661696C75726573004C617374208A
:105580007072696E74206661696C7572657300541F
:105590006F74616C004C617374207072696E74007A
:1055A000416D6269656E7400426564004E6F7A7A7F
:1055B0006C650042656C742073746174757300438C
:1055C0006F6F6C646F776E00566F6C746167657394
:1055D0000054656D70657261747572657300426523
:1055E0006C74207374617475730053656E736F729D
:1055F00020696E666F004578747275646572206903
:105600006E666F0058595A2063616C2E2064657471
:1056100061696C7300756E6B6E6F776E004D4D55E2
:105620003220636F6E6E65637465640044617465F7
:105630003A00686F77746F2E707275736133642EE1
:10564000636F6D00666F72756D2E70727573613366
:10565000642E636F6D00707275736133642E636FB7
:105660006D00746F20756E6C6F61642066696C618B
:105670006D656E7400746F206C6F61642066696C78
:10568000616D656E74005072657373207468652077
:105690006B6E6F62003E43616E63656C00507265B5
:1056A00068656174696E6720746F2063757400505B
:1056B000726568656174696E6720746F20656A65DC
:1056C00063740050726568656174696E6720746FF9
:1056D00020756E6C6F6164005072656865617469F5
:1056E0006E6720746F206C6F61640025530A20255B
:1056F000532020252D33640A2025532020252D33C7
:10570000640025530A2025532020252D33640A20C8
:1057100025532020252D33640A20255320252D33A1
:10572000640025530A2025532020252D33640A20A8
:1057300025532020252D33640A202553202058206E
:10574000252D336420205920252D33640025530A4C
:105750002025532020252D33640A20255320202581
:105760002D33640A20255320205820252D33642012
:10577000205920252D3364002025533A202025640C
:1057800025630A2050494E44413A202020202564B8
:105790002563002025533A20202025642563200A14
:1057A0002025533A20202020202025642563200A2C
:1057B00000205057523A20202020202025642E25FA
:1057C000303164560A204245443A202020202020CF
:1057D00025642E25303164560025530A2058202593
:1057E000640A2059202564004E4F5A5A4C45202DFA
:1057F00020203238352F30004E594C4F4E20202D6E
:1058000020203235352F383000464C4558202D2089
:10581000203234302F35300041534120202D2020BC
:105820003235352F3130350050455420202D202081
:105830003234352F393000504C4120202D20203279
:1058400031352F3630006E6F7A7A6C65202D20202E
:105850003235302F30006661726D2020202D2020DF
:105860003235302F383000466C61736841697220E0
:10587000495020416464723A004D4D553220202039
:10588000202020204E2F410025642E25642E2564E3
:105890002D2564002046573A005365702032382089
:1058A0003230313900453344763666756C6C0045CC
:1058B000494E53795F31306100315F37356D6D5F2F
:1058C0004D4B33002D2D2D2D2D2D2D2D2D2D2D2DF1
:1058D0000020332E382E302D32363834004669728F
:1058E0006D776172653A0025642E25642E25642E3D
:1058F0002564004D373032004D373031004D3730A0
:1059000032004D373031004E4F5A5A4C45202D2031
:1059100020323835004E594C4F4E20202D20203259
:10592000353500464C4558202D202032343000417A
:10593000534120202D202032353500504554202061
:105940002D202032343500504C4120202D20203293
:10595000313500627573793A207061757365642022
:10596000666F7220696E70757400627573793A2083
:1059700070617573656420666F722075736572005F
:10598000627573793A2070726F63657373696E67BD
:105990000000007F4300805443000050430000009B
:1059A00000000080C09A99193E00000000000080AD
:1059B000C09A99193E0000A0400000A040000000DD
:1059C0004025336420737465703D253264206D7307
:1059D000636E743D2534640A0000007F43008058E4
:1059E000439AD94F43FFFFFF67636F64655F4D378D
:1059F000303120626567696E0A0055534152543256
:105A00002072782046756C6C2121210A0053657440
:105A100074696E67732053746F7265640053746F9A
:105A20007265642073657474696E6773207265743F
:105A30007269657665640048617264636F64656469
:105A40002044656661756C742053657474696E6773
:105A500073204C6F6164656400563200000000C81A
:105A6000420000C8420000C8430080CF4300004805
:105A70004300004843000040410000F042E80300BA
:105A800000E8030000C80000008813000000409CEC
:105A90004400409C440000000000000000204E0034
:105AA000000000204100002041CDCCCC3E00002071
:105AB00040000000000000000000000000CDCCCC41
:105AC0003E3D0A8141FF08433EB099AB438F42FC03
:105AD00042E65A343F4C62B04500000000004040AE
